{
  "_format": "hh-sol-artifact-1",
  "contractName": "ValuationToken",
  "sourceName": "src/contracts/ValuationToken.sol",
  "abi": [
    {
      "inputs": [
        {
          "internalType": "address",
          "name": "_treasury",
          "type": "address"
        }
      ],
      "stateMutability": "nonpayable",
      "type": "constructor"
    },
    {
      "anonymous": false,
      "inputs": [
        {
          "indexed": true,
          "internalType": "address",
          "name": "owner",
          "type": "address"
        },
        {
          "indexed": true,
          "internalType": "address",
          "name": "approved",
          "type": "address"
        },
        {
          "indexed": true,
          "internalType": "uint256",
          "name": "tokenId",
          "type": "uint256"
        }
      ],
      "name": "Approval",
      "type": "event"
    },
    {
      "anonymous": false,
      "inputs": [
        {
          "indexed": true,
          "internalType": "address",
          "name": "owner",
          "type": "address"
        },
        {
          "indexed": true,
          "internalType": "address",
          "name": "operator",
          "type": "address"
        },
        {
          "indexed": false,
          "internalType": "bool",
          "name": "approved",
          "type": "bool"
        }
      ],
      "name": "ApprovalForAll",
      "type": "event"
    },
    {
      "anonymous": false,
      "inputs": [
        {
          "indexed": true,
          "internalType": "uint256",
          "name": "tokenId",
          "type": "uint256"
        },
        {
          "indexed": false,
          "internalType": "uint256",
          "name": "amount",
          "type": "uint256"
        },
        {
          "indexed": false,
          "internalType": "address",
          "name": "valuator",
          "type": "address"
        }
      ],
      "name": "CommissionPaid",
      "type": "event"
    },
    {
      "anonymous": false,
      "inputs": [
        {
          "indexed": true,
          "internalType": "bytes32",
          "name": "role",
          "type": "bytes32"
        },
        {
          "indexed": true,
          "internalType": "bytes32",
          "name": "previousAdminRole",
          "type": "bytes32"
        },
        {
          "indexed": true,
          "internalType": "bytes32",
          "name": "newAdminRole",
          "type": "bytes32"
        }
      ],
      "name": "RoleAdminChanged",
      "type": "event"
    },
    {
      "anonymous": false,
      "inputs": [
        {
          "indexed": true,
          "internalType": "bytes32",
          "name": "role",
          "type": "bytes32"
        },
        {
          "indexed": true,
          "internalType": "address",
          "name": "account",
          "type": "address"
        },
        {
          "indexed": true,
          "internalType": "address",
          "name": "sender",
          "type": "address"
        }
      ],
      "name": "RoleGranted",
      "type": "event"
    },
    {
      "anonymous": false,
      "inputs": [
        {
          "indexed": true,
          "internalType": "bytes32",
          "name": "role",
          "type": "bytes32"
        },
        {
          "indexed": true,
          "internalType": "address",
          "name": "account",
          "type": "address"
        },
        {
          "indexed": true,
          "internalType": "address",
          "name": "sender",
          "type": "address"
        }
      ],
      "name": "RoleRevoked",
      "type": "event"
    },
    {
      "anonymous": false,
      "inputs": [
        {
          "indexed": true,
          "internalType": "address",
          "name": "from",
          "type": "address"
        },
        {
          "indexed": true,
          "internalType": "address",
          "name": "to",
          "type": "address"
        },
        {
          "indexed": true,
          "internalType": "uint256",
          "name": "tokenId",
          "type": "uint256"
        }
      ],
      "name": "Transfer",
      "type": "event"
    },
    {
      "anonymous": false,
      "inputs": [
        {
          "indexed": true,
          "internalType": "uint256",
          "name": "tokenId",
          "type": "uint256"
        },
        {
          "indexed": true,
          "internalType": "uint256",
          "name": "propertyTokenId",
          "type": "uint256"
        },
        {
          "indexed": false,
          "internalType": "uint256",
          "name": "value",
          "type": "uint256"
        },
        {
          "indexed": false,
          "internalType": "address",
          "name": "valuator",
          "type": "address"
        },
        {
          "indexed": false,
          "internalType": "bool",
          "name": "isOfficial",
          "type": "bool"
        }
      ],
      "name": "ValuationCreated",
      "type": "event"
    },
    {
      "inputs": [],
      "name": "AI_ROLE",
      "outputs": [
        {
          "internalType": "bytes32",
          "name": "",
          "type": "bytes32"
        }
      ],
      "stateMutability": "view",
      "type": "function"
    },
    {
      "inputs": [],
      "name": "COMMISSION_RATE",
      "outputs": [
        {
          "internalType": "uint256",
          "name": "",
          "type": "uint256"
        }
      ],
      "stateMutability": "view",
      "type": "function"
    },
    {
      "inputs": [],
      "name": "DEFAULT_ADMIN_ROLE",
      "outputs": [
        {
          "internalType": "bytes32",
          "name": "",
          "type": "bytes32"
        }
      ],
      "stateMutability": "view",
      "type": "function"
    },
    {
      "inputs": [],
      "name": "VALUATOR_ROLE",
      "outputs": [
        {
          "internalType": "bytes32",
          "name": "",
          "type": "bytes32"
        }
      ],
      "stateMutability": "view",
      "type": "function"
    },
    {
      "inputs": [
        {
          "internalType": "address",
          "name": "to",
          "type": "address"
        },
        {
          "internalType": "uint256",
          "name": "tokenId",
          "type": "uint256"
        }
      ],
      "name": "approve",
      "outputs": [],
      "stateMutability": "nonpayable",
      "type": "function"
    },
    {
      "inputs": [
        {
          "internalType": "address",
          "name": "owner",
          "type": "address"
        }
      ],
      "name": "balanceOf",
      "outputs": [
        {
          "internalType": "uint256",
          "name": "",
          "type": "uint256"
        }
      ],
      "stateMutability": "view",
      "type": "function"
    },
    {
      "inputs": [
        {
          "internalType": "uint256",
          "name": "propertyTokenId",
          "type": "uint256"
        },
        {
          "internalType": "uint256",
          "name": "value",
          "type": "uint256"
        },
        {
          "internalType": "string",
          "name": "metadataURI",
          "type": "string"
        },
        {
          "internalType": "bool",
          "name": "isOfficial",
          "type": "bool"
        }
      ],
      "name": "createValuation",
      "outputs": [
        {
          "internalType": "uint256",
          "name": "",
          "type": "uint256"
        }
      ],
      "stateMutability": "nonpayable",
      "type": "function"
    },
    {
      "inputs": [
        {
          "internalType": "uint256",
          "name": "tokenId",
          "type": "uint256"
        }
      ],
      "name": "getApproved",
      "outputs": [
        {
          "internalType": "address",
          "name": "",
          "type": "address"
        }
      ],
      "stateMutability": "view",
      "type": "function"
    },
    {
      "inputs": [
        {
          "internalType": "uint256",
          "name": "propertyTokenId",
          "type": "uint256"
        },
        {
          "internalType": "bool",
          "name": "officialOnly",
          "type": "bool"
        }
      ],
      "name": "getLatestValuation",
      "outputs": [
        {
          "components": [
            {
              "internalType": "uint256",
              "name": "propertyTokenId",
              "type": "uint256"
            },
            {
              "internalType": "uint256",
              "name": "value",
              "type": "uint256"
            },
            {
              "internalType": "uint256",
              "name": "timestamp",
              "type": "uint256"
            },
            {
              "internalType": "address",
              "name": "valuator",
              "type": "address"
            },
            {
              "internalType": "bool",
              "name": "isOfficial",
              "type": "bool"
            },
            {
              "internalType": "string",
              "name": "metadataURI",
              "type": "string"
            }
          ],
          "internalType": "struct ValuationToken.Valuation",
          "name": "",
          "type": "tuple"
        }
      ],
      "stateMutability": "view",
      "type": "function"
    },
    {
      "inputs": [
        {
          "internalType": "uint256",
          "name": "propertyTokenId",
          "type": "uint256"
        }
      ],
      "name": "getPropertyValuations",
      "outputs": [
        {
          "components": [
            {
              "internalType": "uint256",
              "name": "propertyTokenId",
              "type": "uint256"
            },
            {
              "internalType": "uint256",
              "name": "value",
              "type": "uint256"
            },
            {
              "internalType": "uint256",
              "name": "timestamp",
              "type": "uint256"
            },
            {
              "internalType": "address",
              "name": "valuator",
              "type": "address"
            },
            {
              "internalType": "bool",
              "name": "isOfficial",
              "type": "bool"
            },
            {
              "internalType": "string",
              "name": "metadataURI",
              "type": "string"
            }
          ],
          "internalType": "struct ValuationToken.Valuation[]",
          "name": "",
          "type": "tuple[]"
        }
      ],
      "stateMutability": "view",
      "type": "function"
    },
    {
      "inputs": [
        {
          "internalType": "bytes32",
          "name": "role",
          "type": "bytes32"
        }
      ],
      "name": "getRoleAdmin",
      "outputs": [
        {
          "internalType": "bytes32",
          "name": "",
          "type": "bytes32"
        }
      ],
      "stateMutability": "view",
      "type": "function"
    },
    {
      "inputs": [
        {
          "internalType": "address",
          "name": "valuator",
          "type": "address"
        }
      ],
      "name": "getValuatorStats",
      "outputs": [
        {
          "internalType": "uint256",
          "name": "completedJobs",
          "type": "uint256"
        },
        {
          "internalType": "uint256",
          "name": "totalEarnings",
          "type": "uint256"
        }
      ],
      "stateMutability": "view",
      "type": "function"
    },
    {
      "inputs": [
        {
          "internalType": "bytes32",
          "name": "role",
          "type": "bytes32"
        },
        {
          "internalType": "address",
          "name": "account",
          "type": "address"
        }
      ],
      "name": "grantRole",
      "outputs": [],
      "stateMutability": "nonpayable",
      "type": "function"
    },
    {
      "inputs": [
        {
          "internalType": "bytes32",
          "name": "role",
          "type": "bytes32"
        },
        {
          "internalType": "address",
          "name": "account",
          "type": "address"
        }
      ],
      "name": "hasRole",
      "outputs": [
        {
          "internalType": "bool",
          "name": "",
          "type": "bool"
        }
      ],
      "stateMutability": "view",
      "type": "function"
    },
    {
      "inputs": [
        {
          "internalType": "address",
          "name": "owner",
          "type": "address"
        },
        {
          "internalType": "address",
          "name": "operator",
          "type": "address"
        }
      ],
      "name": "isApprovedForAll",
      "outputs": [
        {
          "internalType": "bool",
          "name": "",
          "type": "bool"
        }
      ],
      "stateMutability": "view",
      "type": "function"
    },
    {
      "inputs": [],
      "name": "name",
      "outputs": [
        {
          "internalType": "string",
          "name": "",
          "type": "string"
        }
      ],
      "stateMutability": "view",
      "type": "function"
    },
    {
      "inputs": [
        {
          "internalType": "uint256",
          "name": "tokenId",
          "type": "uint256"
        }
      ],
      "name": "ownerOf",
      "outputs": [
        {
          "internalType": "address",
          "name": "",
          "type": "address"
        }
      ],
      "stateMutability": "view",
      "type": "function"
    },
    {
      "inputs": [
        {
          "internalType": "uint256",
          "name": "",
          "type": "uint256"
        },
        {
          "internalType": "uint256",
          "name": "",
          "type": "uint256"
        }
      ],
      "name": "propertyValuations",
      "outputs": [
        {
          "internalType": "uint256",
          "name": "",
          "type": "uint256"
        }
      ],
      "stateMutability": "view",
      "type": "function"
    },
    {
      "inputs": [
        {
          "internalType": "bytes32",
          "name": "role",
          "type": "bytes32"
        },
        {
          "internalType": "address",
          "name": "account",
          "type": "address"
        }
      ],
      "name": "renounceRole",
      "outputs": [],
      "stateMutability": "nonpayable",
      "type": "function"
    },
    {
      "inputs": [
        {
          "internalType": "bytes32",
          "name": "role",
          "type": "bytes32"
        },
        {
          "internalType": "address",
          "name": "account",
          "type": "address"
        }
      ],
      "name": "revokeRole",
      "outputs": [],
      "stateMutability": "nonpayable",
      "type": "function"
    },
    {
      "inputs": [
        {
          "internalType": "address",
          "name": "from",
          "type": "address"
        },
        {
          "internalType": "address",
          "name": "to",
          "type": "address"
        },
        {
          "internalType": "uint256",
          "name": "tokenId",
          "type": "uint256"
        }
      ],
      "name": "safeTransferFrom",
      "outputs": [],
      "stateMutability": "nonpayable",
      "type": "function"
    },
    {
      "inputs": [
        {
          "internalType": "address",
          "name": "from",
          "type": "address"
        },
        {
          "internalType": "address",
          "name": "to",
          "type": "address"
        },
        {
          "internalType": "uint256",
          "name": "tokenId",
          "type": "uint256"
        },
        {
          "internalType": "bytes",
          "name": "data",
          "type": "bytes"
        }
      ],
      "name": "safeTransferFrom",
      "outputs": [],
      "stateMutability": "nonpayable",
      "type": "function"
    },
    {
      "inputs": [
        {
          "internalType": "address",
          "name": "operator",
          "type": "address"
        },
        {
          "internalType": "bool",
          "name": "approved",
          "type": "bool"
        }
      ],
      "name": "setApprovalForAll",
      "outputs": [],
      "stateMutability": "nonpayable",
      "type": "function"
    },
    {
      "inputs": [
        {
          "internalType": "bytes4",
          "name": "interfaceId",
          "type": "bytes4"
        }
      ],
      "name": "supportsInterface",
      "outputs": [
        {
          "internalType": "bool",
          "name": "",
          "type": "bool"
        }
      ],
      "stateMutability": "view",
      "type": "function"
    },
    {
      "inputs": [],
      "name": "symbol",
      "outputs": [
        {
          "internalType": "string",
          "name": "",
          "type": "string"
        }
      ],
      "stateMutability": "view",
      "type": "function"
    },
    {
      "inputs": [
        {
          "internalType": "uint256",
          "name": "tokenId",
          "type": "uint256"
        }
      ],
      "name": "tokenURI",
      "outputs": [
        {
          "internalType": "string",
          "name": "",
          "type": "string"
        }
      ],
      "stateMutability": "view",
      "type": "function"
    },
    {
      "inputs": [
        {
          "internalType": "address",
          "name": "from",
          "type": "address"
        },
        {
          "internalType": "address",
          "name": "to",
          "type": "address"
        },
        {
          "internalType": "uint256",
          "name": "tokenId",
          "type": "uint256"
        }
      ],
      "name": "transferFrom",
      "outputs": [],
      "stateMutability": "nonpayable",
      "type": "function"
    },
    {
      "inputs": [],
      "name": "treasury",
      "outputs": [
        {
          "internalType": "address",
          "name": "",
          "type": "address"
        }
      ],
      "stateMutability": "view",
      "type": "function"
    },
    {
      "inputs": [
        {
          "internalType": "uint256",
          "name": "",
          "type": "uint256"
        }
      ],
      "name": "valuations",
      "outputs": [
        {
          "internalType": "uint256",
          "name": "propertyTokenId",
          "type": "uint256"
        },
        {
          "internalType": "uint256",
          "name": "value",
          "type": "uint256"
        },
        {
          "internalType": "uint256",
          "name": "timestamp",
          "type": "uint256"
        },
        {
          "internalType": "address",
          "name": "valuator",
          "type": "address"
        },
        {
          "internalType": "bool",
          "name": "isOfficial",
          "type": "bool"
        },
        {
          "internalType": "string",
          "name": "metadataURI",
          "type": "string"
        }
      ],
      "stateMutability": "view",
      "type": "function"
    },
    {
      "inputs": [
        {
          "internalType": "address",
          "name": "",
          "type": "address"
        }
      ],
      "name": "valuatorCompletedJobs",
      "outputs": [
        {
          "internalType": "uint256",
          "name": "",
          "type": "uint256"
        }
      ],
      "stateMutability": "view",
      "type": "function"
    },
    {
      "inputs": [
        {
          "internalType": "address",
          "name": "",
          "type": "address"
        }
      ],
      "name": "valuatorTotalEarnings",
      "outputs": [
        {
          "internalType": "uint256",
          "name": "",
          "type": "uint256"
        }
      ],
      "stateMutability": "view",
      "type": "function"
    }
  ],
  "bytecode": "0x60806040523480156200001157600080fd5b5060405162004fc638038062004fc683398181016040528101906200003791906200030b565b6040518060400160405280601281526020017f4d6170436861696e2056616c756174696f6e00000000000000000000000000008152506040518060400160405280600381526020017f4d435600000000000000000000000000000000000000000000000000000000008152508160009081620000b49190620005b7565b508060019081620000c69190620005b7565b505050620000de6000801b336200012660201b60201c565b80600860006101000a81548173ffffffffffffffffffffffffffffffffffffffff021916908373ffffffffffffffffffffffffffffffffffffffff160217905550506200069e565b6200013882826200013c60201b60201c565b5050565b6200014e82826200022e60201b60201c565b6200022a5760016006600084815260200190815260200160002060000160008373ffffffffffffffffffffffffffffffffffffffff1673ffffffffffffffffffffffffffffffffffffffff16815260200190815260200160002060006101000a81548160ff021916908315150217905550620001cf6200029960201b60201c565b73ffffffffffffffffffffffffffffffffffffffff168173ffffffffffffffffffffffffffffffffffffffff16837f2f8788117e7eff1d82e926ec794901d17c78024a50270940304540a733656f0d60405160405180910390a45b5050565b60006006600084815260200190815260200160002060000160008373ffffffffffffffffffffffffffffffffffffffff1673ffffffffffffffffffffffffffffffffffffffff16815260200190815260200160002060009054906101000a900460ff16905092915050565b600033905090565b600080fd5b600073ffffffffffffffffffffffffffffffffffffffff82169050919050565b6000620002d382620002a6565b9050919050565b620002e581620002c6565b8114620002f157600080fd5b50565b6000815190506200030581620002da565b92915050565b600060208284031215620003245762000323620002a1565b5b60006200033484828501620002f4565b91505092915050565b600081519050919050565b7f4e487b7100000000000000000000000000000000000000000000000000000000600052604160045260246000fd5b7f4e487b7100000000000000000000000000000000000000000000000000000000600052602260045260246000fd5b60006002820490506001821680620003bf57607f821691505b602082108103620003d557620003d462000377565b5b50919050565b60008190508160005260206000209050919050565b60006020601f8301049050919050565b600082821b905092915050565b6000600883026200043f7fffffffffffffffffffffffffffffffffffffffffffffffffffffffffffffffff8262000400565b6200044b868362000400565b95508019841693508086168417925050509392505050565b6000819050919050565b6000819050919050565b600062000498620004926200048c8462000463565b6200046d565b62000463565b9050919050565b6000819050919050565b620004b48362000477565b620004cc620004c3826200049f565b8484546200040d565b825550505050565b600090565b620004e3620004d4565b620004f0818484620004a9565b505050565b5b8181101562000518576200050c600082620004d9565b600181019050620004f6565b5050565b601f82111562000567576200053181620003db565b6200053c84620003f0565b810160208510156200054c578190505b620005646200055b85620003f0565b830182620004f5565b50505b505050565b600082821c905092915050565b60006200058c600019846008026200056c565b1980831691505092915050565b6000620005a7838362000579565b9150826002028217905092915050565b620005c2826200033d565b67ffffffffffffffff811115620005de57620005dd62000348565b5b620005ea8254620003a6565b620005f78282856200051c565b600060209050601f8311600181146200062f57600084156200061a578287015190505b62000626858262000599565b86555062000696565b601f1984166200063f86620003db565b60005b82811015620006695784890151825560018201915060208501945060208101905062000642565b8683101562000689578489015162000685601f89168262000579565b8355505b6001600288020188555050505b505050505050565b61491880620006ae6000396000f3fe608060405234801561001057600080fd5b50600436106101e55760003560e01c80637148ee2c1161010f578063a22cb465116100a2578063d006e0eb11610071578063d006e0eb146105f6578063d547741f14610626578063e985e9c514610642578063eeeef87514610672576101e5565b8063a22cb4651461055e578063b88d4fde1461057a578063c87b56dd14610596578063cf04efcd146105c6576101e5565b806395d89b41116100de57806395d89b41146104d4578063980dd5a7146104f2578063991f6e9a14610522578063a217fddf14610540576101e5565b80637148ee2c1461042557806374febed8146104555780637ef0c8511461048657806391d14854146104a4576101e5565b80632f2ff15d116101875780635d03d83e116101565780635d03d83e1461037257806361d027b3146103a75780636352211e146103c557806370a08231146103f5576101e5565b80632f2ff15d146102ee57806336568abe1461030a578063423b86e41461032657806342842e0e14610356576101e5565b8063095ea7b3116101c3578063095ea7b3146102685780631a454ea61461028457806323b872dd146102a2578063248a9ca3146102be576101e5565b806301ffc9a7146101ea57806306fdde031461021a578063081812fc14610238575b600080fd5b61020460048036038101906101ff9190612e0f565b6106a2565b6040516102119190612e57565b60405180910390f35b6102226106b4565b60405161022f9190612f02565b60405180910390f35b610252600480360381019061024d9190612f5a565b610746565b60405161025f9190612fc8565b60405180910390f35b610282600480360381019061027d919061300f565b61078c565b005b61028c6108a3565b604051610299919061305e565b60405180910390f35b6102bc60048036038101906102b79190613079565b6108a9565b005b6102d860048036038101906102d39190613102565b610909565b6040516102e5919061313e565b60405180910390f35b61030860048036038101906103039190613159565b610929565b005b610324600480360381019061031f9190613159565b61094a565b005b610340600480360381019061033b9190612f5a565b6109cd565b60405161034d919061335b565b60405180910390f35b610370600480360381019061036b9190613079565b610c2f565b005b61038c60048036038101906103879190612f5a565b610c4f565b60405161039e9695949392919061337d565b60405180910390f35b6103af610d40565b6040516103bc9190612fc8565b60405180910390f35b6103df60048036038101906103da9190612f5a565b610d66565b6040516103ec9190612fc8565b60405180910390f35b61040f600480360381019061040a91906133e5565b610dec565b60405161041c919061305e565b60405180910390f35b61043f600480360381019061043a9190613573565b610ea3565b60405161044c919061305e565b60405180910390f35b61046f600480360381019061046a91906133e5565b6112d5565b60405161047d9291906135f6565b60405180910390f35b61048e611361565b60405161049b919061313e565b60405180910390f35b6104be60048036038101906104b99190613159565b611385565b6040516104cb9190612e57565b60405180910390f35b6104dc6113f0565b6040516104e99190612f02565b60405180910390f35b61050c6004803603810190610507919061361f565b611482565b60405161051991906136e8565b60405180910390f35b61052a611721565b604051610537919061313e565b60405180910390f35b610548611745565b604051610555919061313e565b60405180910390f35b6105786004803603810190610573919061370a565b61174c565b005b610594600480360381019061058f91906137eb565b611762565b005b6105b060048036038101906105ab9190612f5a565b6117c4565b6040516105bd9190612f02565b60405180910390f35b6105e060048036038101906105db919061386e565b61182c565b6040516105ed919061305e565b60405180910390f35b610610600480360381019061060b91906133e5565b61185d565b60405161061d919061305e565b60405180910390f35b610640600480360381019061063b9190613159565b611875565b005b61065c600480360381019061065791906138ae565b611896565b6040516106699190612e57565b60405180910390f35b61068c600480360381019061068791906133e5565b61192a565b604051610699919061305e565b60405180910390f35b60006106ad82611942565b9050919050565b6060600080546106c39061391d565b80601f01602080910402602001604051908101604052809291908181526020018280546106ef9061391d565b801561073c5780601f106107115761010080835404028352916020019161073c565b820191906000526020600020905b81548152906001019060200180831161071f57829003601f168201915b5050505050905090565b6000610751826119bc565b6004600083815260200190815260200160002060009054906101000a900473ffffffffffffffffffffffffffffffffffffffff169050919050565b600061079782610d66565b90508073ffffffffffffffffffffffffffffffffffffffff168373ffffffffffffffffffffffffffffffffffffffff1603610807576040517f08c379a00000000000000000000000000000000000000000000000000000000081526004016107fe906139c0565b60405180910390fd5b8073ffffffffffffffffffffffffffffffffffffffff16610826611a07565b73ffffffffffffffffffffffffffffffffffffffff16148061085557506108548161084f611a07565b611896565b5b610894576040517f08c379a000000000000000000000000000000000000000000000000000000000815260040161088b90613a52565b60405180910390fd5b61089e8383611a0f565b505050565b6103e881565b6108ba6108b4611a07565b82611ac8565b6108f9576040517f08c379a00000000000000000000000000000000000000000000000000000000081526004016108f090613ae4565b60405180910390fd5b610904838383611b5d565b505050565b600060066000838152602001908152602001600020600101549050919050565b61093282610909565b61093b81611e56565b6109458383611e6a565b505050565b610952611a07565b73ffffffffffffffffffffffffffffffffffffffff168173ffffffffffffffffffffffffffffffffffffffff16146109bf576040517f08c379a00000000000000000000000000000000000000000000000000000000081526004016109b690613b76565b60405180910390fd5b6109c98282611f4b565b5050565b60606000600a6000848152602001908152602001600020805480602002602001604051908101604052809291908181526020018280548015610a2e57602002820191906000526020600020905b815481526020019060010190808311610a1a575b505050505090506000815167ffffffffffffffff811115610a5257610a5161341c565b5b604051908082528060200260200182016040528015610a8b57816020015b610a78612d55565b815260200190600190039081610a705790505b50905060005b8251811015610c245760096000848381518110610ab157610ab0613b96565b5b602002602001015181526020019081526020016000206040518060c00160405290816000820154815260200160018201548152602001600282015481526020016003820160009054906101000a900473ffffffffffffffffffffffffffffffffffffffff1673ffffffffffffffffffffffffffffffffffffffff1673ffffffffffffffffffffffffffffffffffffffff1681526020016003820160149054906101000a900460ff16151515158152602001600482018054610b719061391d565b80601f0160208091040260200160405190810160405280929190818152602001828054610b9d9061391d565b8015610bea5780601f10610bbf57610100808354040283529160200191610bea565b820191906000526020600020905b815481529060010190602001808311610bcd57829003601f168201915b505050505081525050828281518110610c0657610c05613b96565b5b60200260200101819052508080610c1c90613bf4565b915050610a91565b508092505050919050565b610c4a83838360405180602001604052806000815250611762565b505050565b60096020528060005260406000206000915090508060000154908060010154908060020154908060030160009054906101000a900473ffffffffffffffffffffffffffffffffffffffff16908060030160149054906101000a900460ff1690806004018054610cbd9061391d565b80601f0160208091040260200160405190810160405280929190818152602001828054610ce99061391d565b8015610d365780601f10610d0b57610100808354040283529160200191610d36565b820191906000526020600020905b815481529060010190602001808311610d1957829003601f168201915b5050505050905086565b600860009054906101000a900473ffffffffffffffffffffffffffffffffffffffff1681565b600080610d728361202d565b9050600073ffffffffffffffffffffffffffffffffffffffff168173ffffffffffffffffffffffffffffffffffffffff1603610de3576040517f08c379a0000000000000000000000000000000000000000000000000000000008152600401610dda90613c88565b60405180910390fd5b80915050919050565b60008073ffffffffffffffffffffffffffffffffffffffff168273ffffffffffffffffffffffffffffffffffffffff1603610e5c576040517f08c379a0000000000000000000000000000000000000000000000000000000008152600401610e5390613d1a565b60405180910390fd5b600360008373ffffffffffffffffffffffffffffffffffffffff1673ffffffffffffffffffffffffffffffffffffffff168152602001908152602001600020549050919050565b6000610ecf7f96ddb9f5c6ca45b5e7ff9e3a491f2c440fd97d9de1e0e224ccebf3370e1f239833611385565b80610f005750610eff7f7dd84470736c6a01afa6b9e8c8f1b622174523cf878b9fdc8283e91f393b7b4833611385565b5b610f3f576040517f08c379a0000000000000000000000000000000000000000000000000000000008152600401610f3690613d86565b60405180910390fd5b8115610fb357610f6f7f96ddb9f5c6ca45b5e7ff9e3a491f2c440fd97d9de1e0e224ccebf3370e1f239833611385565b610fae576040517f08c379a0000000000000000000000000000000000000000000000000000000008152600401610fa590613df2565b60405180910390fd5b61101d565b610fdd7f7dd84470736c6a01afa6b9e8c8f1b622174523cf878b9fdc8283e91f393b7b4833611385565b61101c576040517f08c379a000000000000000000000000000000000000000000000000000000000815260040161101390613e5e565b60405180910390fd5b5b611027600761206a565b60006110336007612080565b90506040518060c001604052808781526020018681526020014281526020013373ffffffffffffffffffffffffffffffffffffffff1681526020018415158152602001858152506009600083815260200190815260200160002060008201518160000155602082015181600101556040820151816002015560608201518160030160006101000a81548173ffffffffffffffffffffffffffffffffffffffff021916908373ffffffffffffffffffffffffffffffffffffffff16021790555060808201518160030160146101000a81548160ff02191690831515021790555060a0820151816004019081611127919061402a565b50905050600a600087815260200190815260200160002081908060018154018082558091505060019003906000526020600020016000909190919091505582156112825760006127106103e88761117e91906140fc565b611188919061416d565b905060008187611198919061419e565b9050600b60003373ffffffffffffffffffffffffffffffffffffffff1673ffffffffffffffffffffffffffffffffffffffff16815260200190815260200160002060008154809291906111ea90613bf4565b919050555080600c60003373ffffffffffffffffffffffffffffffffffffffff1673ffffffffffffffffffffffffffffffffffffffff168152602001908152602001600020600082825461123e91906141d2565b92505081905550827fa914e5b1cf79201aa64edbd4520b9cdb87c6964abf9fa600f017baef42aff0798333604051611277929190614206565b60405180910390a250505b61128c338261208e565b85817f1e7f01f1fee131d628b9a3fbd046b2e497bbc8a6558c43fefb5c39995e7096698733876040516112c19392919061422f565b60405180910390a380915050949350505050565b600080600b60008473ffffffffffffffffffffffffffffffffffffffff1673ffffffffffffffffffffffffffffffffffffffff16815260200190815260200160002054600c60008573ffffffffffffffffffffffffffffffffffffffff1673ffffffffffffffffffffffffffffffffffffffff1681526020019081526020016000205491509150915091565b7f96ddb9f5c6ca45b5e7ff9e3a491f2c440fd97d9de1e0e224ccebf3370e1f239881565b60006006600084815260200190815260200160002060000160008373ffffffffffffffffffffffffffffffffffffffff1673ffffffffffffffffffffffffffffffffffffffff16815260200190815260200160002060009054906101000a900460ff16905092915050565b6060600180546113ff9061391d565b80601f016020809104026020016040519081016040528092919081815260200182805461142b9061391d565b80156114785780601f1061144d57610100808354040283529160200191611478565b820191906000526020600020905b81548152906001019060200180831161145b57829003601f168201915b5050505050905090565b61148a612d55565b6000600a60008581526020019081526020016000208054806020026020016040519081016040528092919081815260200182805480156114e957602002820191906000526020600020905b8154815260200190600101908083116114d5575b505050505090506000815111611534576040517f08c379a000000000000000000000000000000000000000000000000000000000815260040161152b906142b2565b60405180910390fd5b6000815190505b60008111156116df5760006009600084600185611558919061419e565b8151811061156957611568613b96565b5b602002602001015181526020019081526020016000206040518060c00160405290816000820154815260200160018201548152602001600282015481526020016003820160009054906101000a900473ffffffffffffffffffffffffffffffffffffffff1673ffffffffffffffffffffffffffffffffffffffff1673ffffffffffffffffffffffffffffffffffffffff1681526020016003820160149054906101000a900460ff161515151581526020016004820180546116299061391d565b80601f01602080910402602001604051908101604052809291908181526020018280546116559061391d565b80156116a25780601f10611677576101008083540402835291602001916116a2565b820191906000526020600020905b81548152906001019060200180831161168557829003601f168201915b50505050508152505090508415806116bb575080608001515b156116cb5780935050505061171b565b5080806116d7906142d2565b91505061153b565b506040517f08c379a000000000000000000000000000000000000000000000000000000000815260040161171290614347565b60405180910390fd5b92915050565b7f7dd84470736c6a01afa6b9e8c8f1b622174523cf878b9fdc8283e91f393b7b4881565b6000801b81565b61175e611757611a07565b83836120ac565b5050565b61177361176d611a07565b83611ac8565b6117b2576040517f08c379a00000000000000000000000000000000000000000000000000000000081526004016117a990613ae4565b60405180910390fd5b6117be84848484612218565b50505050565b60606117cf826119bc565b60006117d9612274565b905060008151116117f95760405180602001604052806000815250611824565b806118038461228b565b6040516020016118149291906143a3565b6040516020818303038152906040525b915050919050565b600a602052816000526040600020818154811061184857600080fd5b90600052602060002001600091509150505481565b600c6020528060005260406000206000915090505481565b61187e82610909565b61188781611e56565b6118918383611f4b565b505050565b6000600560008473ffffffffffffffffffffffffffffffffffffffff1673ffffffffffffffffffffffffffffffffffffffff16815260200190815260200160002060008373ffffffffffffffffffffffffffffffffffffffff1673ffffffffffffffffffffffffffffffffffffffff16815260200190815260200160002060009054906101000a900460ff16905092915050565b600b6020528060005260406000206000915090505481565b60007f7965db0b000000000000000000000000000000000000000000000000000000007bffffffffffffffffffffffffffffffffffffffffffffffffffffffff1916827bffffffffffffffffffffffffffffffffffffffffffffffffffffffff191614806119b557506119b482612359565b5b9050919050565b6119c58161243b565b611a04576040517f08c379a00000000000000000000000000000000000000000000000000000000081526004016119fb90613c88565b60405180910390fd5b50565b600033905090565b816004600083815260200190815260200160002060006101000a81548173ffffffffffffffffffffffffffffffffffffffff021916908373ffffffffffffffffffffffffffffffffffffffff160217905550808273ffffffffffffffffffffffffffffffffffffffff16611a8283610d66565b73ffffffffffffffffffffffffffffffffffffffff167f8c5be1e5ebec7d5bd14f71427d1e84f3dd0314c0f7b2291e5b200ac8c7c3b92560405160405180910390a45050565b600080611ad483610d66565b90508073ffffffffffffffffffffffffffffffffffffffff168473ffffffffffffffffffffffffffffffffffffffff161480611b165750611b158185611896565b5b80611b5457508373ffffffffffffffffffffffffffffffffffffffff16611b3c84610746565b73ffffffffffffffffffffffffffffffffffffffff16145b91505092915050565b8273ffffffffffffffffffffffffffffffffffffffff16611b7d82610d66565b73ffffffffffffffffffffffffffffffffffffffff1614611bd3576040517f08c379a0000000000000000000000000000000000000000000000000000000008152600401611bca90614439565b60405180910390fd5b600073ffffffffffffffffffffffffffffffffffffffff168273ffffffffffffffffffffffffffffffffffffffff1603611c42576040517f08c379a0000000000000000000000000000000000000000000000000000000008152600401611c39906144cb565b60405180910390fd5b611c4f838383600161247c565b8273ffffffffffffffffffffffffffffffffffffffff16611c6f82610d66565b73ffffffffffffffffffffffffffffffffffffffff1614611cc5576040517f08c379a0000000000000000000000000000000000000000000000000000000008152600401611cbc90614439565b60405180910390fd5b6004600082815260200190815260200160002060006101000a81549073ffffffffffffffffffffffffffffffffffffffff02191690556001600360008573ffffffffffffffffffffffffffffffffffffffff1673ffffffffffffffffffffffffffffffffffffffff168152602001908152602001600020600082825403925050819055506001600360008473ffffffffffffffffffffffffffffffffffffffff1673ffffffffffffffffffffffffffffffffffffffff16815260200190815260200160002060008282540192505081905550816002600083815260200190815260200160002060006101000a81548173ffffffffffffffffffffffffffffffffffffffff021916908373ffffffffffffffffffffffffffffffffffffffff160217905550808273ffffffffffffffffffffffffffffffffffffffff168473ffffffffffffffffffffffffffffffffffffffff167fddf252ad1be2c89b69c2b068fc378daa952ba7f163c4a11628f55a4df523b3ef60405160405180910390a4611e518383836001612482565b505050565b611e6781611e62611a07565b612488565b50565b611e748282611385565b611f475760016006600084815260200190815260200160002060000160008373ffffffffffffffffffffffffffffffffffffffff1673ffffffffffffffffffffffffffffffffffffffff16815260200190815260200160002060006101000a81548160ff021916908315150217905550611eec611a07565b73ffffffffffffffffffffffffffffffffffffffff168173ffffffffffffffffffffffffffffffffffffffff16837f2f8788117e7eff1d82e926ec794901d17c78024a50270940304540a733656f0d60405160405180910390a45b5050565b611f558282611385565b156120295760006006600084815260200190815260200160002060000160008373ffffffffffffffffffffffffffffffffffffffff1673ffffffffffffffffffffffffffffffffffffffff16815260200190815260200160002060006101000a81548160ff021916908315150217905550611fce611a07565b73ffffffffffffffffffffffffffffffffffffffff168173ffffffffffffffffffffffffffffffffffffffff16837ff6391f5c32d9c69d2a47ea670b442974b53935d1edc7fd64eb21e047a839171b60405160405180910390a45b5050565b60006002600083815260200190815260200160002060009054906101000a900473ffffffffffffffffffffffffffffffffffffffff169050919050565b6001816000016000828254019250508190555050565b600081600001549050919050565b6120a882826040518060200160405280600081525061250d565b5050565b8173ffffffffffffffffffffffffffffffffffffffff168373ffffffffffffffffffffffffffffffffffffffff160361211a576040517f08c379a000000000000000000000000000000000000000000000000000000000815260040161211190614537565b60405180910390fd5b80600560008573ffffffffffffffffffffffffffffffffffffffff1673ffffffffffffffffffffffffffffffffffffffff16815260200190815260200160002060008473ffffffffffffffffffffffffffffffffffffffff1673ffffffffffffffffffffffffffffffffffffffff16815260200190815260200160002060006101000a81548160ff0219169083151502179055508173ffffffffffffffffffffffffffffffffffffffff168373ffffffffffffffffffffffffffffffffffffffff167f17307eab39ab6107e8899845ad3d59bd9653f200f220920489ca2b5937696c318360405161220b9190612e57565b60405180910390a3505050565b612223848484611b5d565b61222f84848484612568565b61226e576040517f08c379a0000000000000000000000000000000000000000000000000000000008152600401612265906145c9565b60405180910390fd5b50505050565b606060405180602001604052806000815250905090565b60606000600161229a846126ef565b01905060008167ffffffffffffffff8111156122b9576122b861341c565b5b6040519080825280601f01601f1916602001820160405280156122eb5781602001600182028036833780820191505090505b509050600082602001820190505b60011561234e578080600190039150507f3031323334353637383961626364656600000000000000000000000000000000600a86061a8153600a85816123425761234161413e565b5b049450600085036122f9575b819350505050919050565b60007f80ac58cd000000000000000000000000000000000000000000000000000000007bffffffffffffffffffffffffffffffffffffffffffffffffffffffff1916827bffffffffffffffffffffffffffffffffffffffffffffffffffffffff1916148061242457507f5b5e139f000000000000000000000000000000000000000000000000000000007bffffffffffffffffffffffffffffffffffffffffffffffffffffffff1916827bffffffffffffffffffffffffffffffffffffffffffffffffffffffff1916145b80612434575061243382612842565b5b9050919050565b60008073ffffffffffffffffffffffffffffffffffffffff1661245d8361202d565b73ffffffffffffffffffffffffffffffffffffffff1614159050919050565b50505050565b50505050565b6124928282611385565b6125095761249f816128ac565b6124ad8360001c60206128d9565b6040516020016124be929190614681565b6040516020818303038152906040526040517f08c379a00000000000000000000000000000000000000000000000000000000081526004016125009190612f02565b60405180910390fd5b5050565b6125178383612b15565b6125246000848484612568565b612563576040517f08c379a000000000000000000000000000000000000000000000000000000000815260040161255a906145c9565b60405180910390fd5b505050565b60006125898473ffffffffffffffffffffffffffffffffffffffff16612d32565b156126e2578373ffffffffffffffffffffffffffffffffffffffff1663150b7a026125b2611a07565b8786866040518563ffffffff1660e01b81526004016125d49493929190614710565b6020604051808303816000875af192505050801561261057506040513d601f19601f8201168201806040525081019061260d9190614771565b60015b612692573d8060008114612640576040519150601f19603f3d011682016040523d82523d6000602084013e612645565b606091505b50600081510361268a576040517f08c379a0000000000000000000000000000000000000000000000000000000008152600401612681906145c9565b60405180910390fd5b805181602001fd5b63150b7a0260e01b7bffffffffffffffffffffffffffffffffffffffffffffffffffffffff1916817bffffffffffffffffffffffffffffffffffffffffffffffffffffffff1916149150506126e7565b600190505b949350505050565b600080600090507a184f03e93ff9f4daa797ed6e38ed64bf6a1f010000000000000000831061274d577a184f03e93ff9f4daa797ed6e38ed64bf6a1f01000000000000000083816127435761274261413e565b5b0492506040810190505b6d04ee2d6d415b85acef8100000000831061278a576d04ee2d6d415b85acef810000000083816127805761277f61413e565b5b0492506020810190505b662386f26fc1000083106127b957662386f26fc1000083816127af576127ae61413e565b5b0492506010810190505b6305f5e10083106127e2576305f5e10083816127d8576127d761413e565b5b0492506008810190505b61271083106128075761271083816127fd576127fc61413e565b5b0492506004810190505b6064831061282a57606483816128205761281f61413e565b5b0492506002810190505b600a8310612839576001810190505b80915050919050565b60007f01ffc9a7000000000000000000000000000000000000000000000000000000007bffffffffffffffffffffffffffffffffffffffffffffffffffffffff1916827bffffffffffffffffffffffffffffffffffffffffffffffffffffffff1916149050919050565b60606128d28273ffffffffffffffffffffffffffffffffffffffff16601460ff166128d9565b9050919050565b6060600060028360026128ec91906140fc565b6128f691906141d2565b67ffffffffffffffff81111561290f5761290e61341c565b5b6040519080825280601f01601f1916602001820160405280156129415781602001600182028036833780820191505090505b5090507f30000000000000000000000000000000000000000000000000000000000000008160008151811061297957612978613b96565b5b60200101907effffffffffffffffffffffffffffffffffffffffffffffffffffffffffffff1916908160001a9053507f7800000000000000000000000000000000000000000000000000000000000000816001815181106129dd576129dc613b96565b5b60200101907effffffffffffffffffffffffffffffffffffffffffffffffffffffffffffff1916908160001a90535060006001846002612a1d91906140fc565b612a2791906141d2565b90505b6001811115612ac7577f3031323334353637383961626364656600000000000000000000000000000000600f861660108110612a6957612a68613b96565b5b1a60f81b828281518110612a8057612a7f613b96565b5b60200101907effffffffffffffffffffffffffffffffffffffffffffffffffffffffffffff1916908160001a905350600485901c945080612ac0906142d2565b9050612a2a565b5060008414612b0b576040517f08c379a0000000000000000000000000000000000000000000000000000000008152600401612b02906147ea565b60405180910390fd5b8091505092915050565b600073ffffffffffffffffffffffffffffffffffffffff168273ffffffffffffffffffffffffffffffffffffffff1603612b84576040517f08c379a0000000000000000000000000000000000000000000000000000000008152600401612b7b90614856565b60405180910390fd5b612b8d8161243b565b15612bcd576040517f08c379a0000000000000000000000000000000000000000000000000000000008152600401612bc4906148c2565b60405180910390fd5b612bdb60008383600161247c565b612be48161243b565b15612c24576040517f08c379a0000000000000000000000000000000000000000000000000000000008152600401612c1b906148c2565b60405180910390fd5b6001600360008473ffffffffffffffffffffffffffffffffffffffff1673ffffffffffffffffffffffffffffffffffffffff16815260200190815260200160002060008282540192505081905550816002600083815260200190815260200160002060006101000a81548173ffffffffffffffffffffffffffffffffffffffff021916908373ffffffffffffffffffffffffffffffffffffffff160217905550808273ffffffffffffffffffffffffffffffffffffffff16600073ffffffffffffffffffffffffffffffffffffffff167fddf252ad1be2c89b69c2b068fc378daa952ba7f163c4a11628f55a4df523b3ef60405160405180910390a4612d2e600083836001612482565b5050565b6000808273ffffffffffffffffffffffffffffffffffffffff163b119050919050565b6040518060c00160405280600081526020016000815260200160008152602001600073ffffffffffffffffffffffffffffffffffffffff168152602001600015158152602001606081525090565b6000604051905090565b600080fd5b600080fd5b60007fffffffff0000000000000000000000000000000000000000000000000000000082169050919050565b612dec81612db7565b8114612df757600080fd5b50565b600081359050612e0981612de3565b92915050565b600060208284031215612e2557612e24612dad565b5b6000612e3384828501612dfa565b91505092915050565b60008115159050919050565b612e5181612e3c565b82525050565b6000602082019050612e6c6000830184612e48565b92915050565b600081519050919050565b600082825260208201905092915050565b60005b83811015612eac578082015181840152602081019050612e91565b60008484015250505050565b6000601f19601f8301169050919050565b6000612ed482612e72565b612ede8185612e7d565b9350612eee818560208601612e8e565b612ef781612eb8565b840191505092915050565b60006020820190508181036000830152612f1c8184612ec9565b905092915050565b6000819050919050565b612f3781612f24565b8114612f4257600080fd5b50565b600081359050612f5481612f2e565b92915050565b600060208284031215612f7057612f6f612dad565b5b6000612f7e84828501612f45565b91505092915050565b600073ffffffffffffffffffffffffffffffffffffffff82169050919050565b6000612fb282612f87565b9050919050565b612fc281612fa7565b82525050565b6000602082019050612fdd6000830184612fb9565b92915050565b612fec81612fa7565b8114612ff757600080fd5b50565b60008135905061300981612fe3565b92915050565b6000806040838503121561302657613025612dad565b5b600061303485828601612ffa565b925050602061304585828601612f45565b9150509250929050565b61305881612f24565b82525050565b6000602082019050613073600083018461304f565b92915050565b60008060006060848603121561309257613091612dad565b5b60006130a086828701612ffa565b93505060206130b186828701612ffa565b92505060406130c286828701612f45565b9150509250925092565b6000819050919050565b6130df816130cc565b81146130ea57600080fd5b50565b6000813590506130fc816130d6565b92915050565b60006020828403121561311857613117612dad565b5b6000613126848285016130ed565b91505092915050565b613138816130cc565b82525050565b6000602082019050613153600083018461312f565b92915050565b600080604083850312156131705761316f612dad565b5b600061317e858286016130ed565b925050602061318f85828601612ffa565b9150509250929050565b600081519050919050565b600082825260208201905092915050565b6000819050602082019050919050565b6131ce81612f24565b82525050565b6131dd81612fa7565b82525050565b6131ec81612e3c565b82525050565b600082825260208201905092915050565b600061320e82612e72565b61321881856131f2565b9350613228818560208601612e8e565b61323181612eb8565b840191505092915050565b600060c08301600083015161325460008601826131c5565b50602083015161326760208601826131c5565b50604083015161327a60408601826131c5565b50606083015161328d60608601826131d4565b5060808301516132a060808601826131e3565b5060a083015184820360a08601526132b88282613203565b9150508091505092915050565b60006132d1838361323c565b905092915050565b6000602082019050919050565b60006132f182613199565b6132fb81856131a4565b93508360208202850161330d856131b5565b8060005b85811015613349578484038952815161332a85826132c5565b9450613335836132d9565b925060208a01995050600181019050613311565b50829750879550505050505092915050565b6000602082019050818103600083015261337581846132e6565b905092915050565b600060c082019050613392600083018961304f565b61339f602083018861304f565b6133ac604083018761304f565b6133b96060830186612fb9565b6133c66080830185612e48565b81810360a08301526133d88184612ec9565b9050979650505050505050565b6000602082840312156133fb576133fa612dad565b5b600061340984828501612ffa565b91505092915050565b600080fd5b600080fd5b7f4e487b7100000000000000000000000000000000000000000000000000000000600052604160045260246000fd5b61345482612eb8565b810181811067ffffffffffffffff821117156134735761347261341c565b5b80604052505050565b6000613486612da3565b9050613492828261344b565b919050565b600067ffffffffffffffff8211156134b2576134b161341c565b5b6134bb82612eb8565b9050602081019050919050565b82818337600083830152505050565b60006134ea6134e584613497565b61347c565b90508281526020810184848401111561350657613505613417565b5b6135118482856134c8565b509392505050565b600082601f83011261352e5761352d613412565b5b813561353e8482602086016134d7565b91505092915050565b61355081612e3c565b811461355b57600080fd5b50565b60008135905061356d81613547565b92915050565b6000806000806080858703121561358d5761358c612dad565b5b600061359b87828801612f45565b94505060206135ac87828801612f45565b935050604085013567ffffffffffffffff8111156135cd576135cc612db2565b5b6135d987828801613519565b92505060606135ea8782880161355e565b91505092959194509250565b600060408201905061360b600083018561304f565b613618602083018461304f565b9392505050565b6000806040838503121561363657613635612dad565b5b600061364485828601612f45565b92505060206136558582860161355e565b9150509250929050565b600060c08301600083015161367760008601826131c5565b50602083015161368a60208601826131c5565b50604083015161369d60408601826131c5565b5060608301516136b060608601826131d4565b5060808301516136c360808601826131e3565b5060a083015184820360a08601526136db8282613203565b9150508091505092915050565b60006020820190508181036000830152613702818461365f565b905092915050565b6000806040838503121561372157613720612dad565b5b600061372f85828601612ffa565b92505060206137408582860161355e565b9150509250929050565b600067ffffffffffffffff8211156137655761376461341c565b5b61376e82612eb8565b9050602081019050919050565b600061378e6137898461374a565b61347c565b9050828152602081018484840111156137aa576137a9613417565b5b6137b58482856134c8565b509392505050565b600082601f8301126137d2576137d1613412565b5b81356137e284826020860161377b565b91505092915050565b6000806000806080858703121561380557613804612dad565b5b600061381387828801612ffa565b945050602061382487828801612ffa565b935050604061383587828801612f45565b925050606085013567ffffffffffffffff81111561385657613855612db2565b5b613862878288016137bd565b91505092959194509250565b6000806040838503121561388557613884612dad565b5b600061389385828601612f45565b92505060206138a485828601612f45565b9150509250929050565b600080604083850312156138c5576138c4612dad565b5b60006138d385828601612ffa565b92505060206138e485828601612ffa565b9150509250929050565b7f4e487b7100000000000000000000000000000000000000000000000000000000600052602260045260246000fd5b6000600282049050600182168061393557607f821691505b602082108103613948576139476138ee565b5b50919050565b7f4552433732313a20617070726f76616c20746f2063757272656e74206f776e6560008201527f7200000000000000000000000000000000000000000000000000000000000000602082015250565b60006139aa602183612e7d565b91506139b58261394e565b604082019050919050565b600060208201905081810360008301526139d98161399d565b9050919050565b7f4552433732313a20617070726f76652063616c6c6572206973206e6f7420746f60008201527f6b656e206f776e6572206f7220617070726f76656420666f7220616c6c000000602082015250565b6000613a3c603d83612e7d565b9150613a47826139e0565b604082019050919050565b60006020820190508181036000830152613a6b81613a2f565b9050919050565b7f4552433732313a2063616c6c6572206973206e6f7420746f6b656e206f776e6560008201527f72206f7220617070726f76656400000000000000000000000000000000000000602082015250565b6000613ace602d83612e7d565b9150613ad982613a72565b604082019050919050565b60006020820190508181036000830152613afd81613ac1565b9050919050565b7f416363657373436f6e74726f6c3a2063616e206f6e6c792072656e6f756e636560008201527f20726f6c657320666f722073656c660000000000000000000000000000000000602082015250565b6000613b60602f83612e7d565b9150613b6b82613b04565b604082019050919050565b60006020820190508181036000830152613b8f81613b53565b9050919050565b7f4e487b7100000000000000000000000000000000000000000000000000000000600052603260045260246000fd5b7f4e487b7100000000000000000000000000000000000000000000000000000000600052601160045260246000fd5b6000613bff82612f24565b91507fffffffffffffffffffffffffffffffffffffffffffffffffffffffffffffffff8203613c3157613c30613bc5565b5b600182019050919050565b7f4552433732313a20696e76616c696420746f6b656e2049440000000000000000600082015250565b6000613c72601883612e7d565b9150613c7d82613c3c565b602082019050919050565b60006020820190508181036000830152613ca181613c65565b9050919050565b7f4552433732313a2061646472657373207a65726f206973206e6f74206120766160008201527f6c6964206f776e65720000000000000000000000000000000000000000000000602082015250565b6000613d04602983612e7d565b9150613d0f82613ca8565b604082019050919050565b60006020820190508181036000830152613d3381613cf7565b9050919050565b7f43616c6c6572206973206e6f7420617574686f72697a65640000000000000000600082015250565b6000613d70601883612e7d565b9150613d7b82613d3a565b602082019050919050565b60006020820190508181036000830152613d9f81613d63565b9050919050565b7f4e6f742061206365727469666965642076616c7561746f720000000000000000600082015250565b6000613ddc601883612e7d565b9150613de782613da6565b602082019050919050565b60006020820190508181036000830152613e0b81613dcf565b9050919050565b7f4e6f742074686520414920736572766963650000000000000000000000000000600082015250565b6000613e48601283612e7d565b9150613e5382613e12565b602082019050919050565b60006020820190508181036000830152613e7781613e3b565b9050919050565b60008190508160005260206000209050919050565b60006020601f8301049050919050565b600082821b905092915050565b600060088302613ee07fffffffffffffffffffffffffffffffffffffffffffffffffffffffffffffffff82613ea3565b613eea8683613ea3565b95508019841693508086168417925050509392505050565b6000819050919050565b6000613f27613f22613f1d84612f24565b613f02565b612f24565b9050919050565b6000819050919050565b613f4183613f0c565b613f55613f4d82613f2e565b848454613eb0565b825550505050565b600090565b613f6a613f5d565b613f75818484613f38565b505050565b5b81811015613f9957613f8e600082613f62565b600181019050613f7b565b5050565b601f821115613fde57613faf81613e7e565b613fb884613e93565b81016020851015613fc7578190505b613fdb613fd385613e93565b830182613f7a565b50505b505050565b600082821c905092915050565b600061400160001984600802613fe3565b1980831691505092915050565b600061401a8383613ff0565b9150826002028217905092915050565b61403382612e72565b67ffffffffffffffff81111561404c5761404b61341c565b5b614056825461391d565b614061828285613f9d565b600060209050601f8311600181146140945760008415614082578287015190505b61408c858261400e565b8655506140f4565b601f1984166140a286613e7e565b60005b828110156140ca578489015182556001820191506020850194506020810190506140a5565b868310156140e757848901516140e3601f891682613ff0565b8355505b6001600288020188555050505b505050505050565b600061410782612f24565b915061411283612f24565b925082820261412081612f24565b9150828204841483151761413757614136613bc5565b5b5092915050565b7f4e487b7100000000000000000000000000000000000000000000000000000000600052601260045260246000fd5b600061417882612f24565b915061418383612f24565b9250826141935761419261413e565b5b828204905092915050565b60006141a982612f24565b91506141b483612f24565b92508282039050818111156141cc576141cb613bc5565b5b92915050565b60006141dd82612f24565b91506141e883612f24565b9250828201905080821115614200576141ff613bc5565b5b92915050565b600060408201905061421b600083018561304f565b6142286020830184612fb9565b9392505050565b6000606082019050614244600083018661304f565b6142516020830185612fb9565b61425e6040830184612e48565b949350505050565b7f4e6f2076616c756174696f6e7320666f756e6400000000000000000000000000600082015250565b600061429c601383612e7d565b91506142a782614266565b602082019050919050565b600060208201905081810360008301526142cb8161428f565b9050919050565b60006142dd82612f24565b9150600082036142f0576142ef613bc5565b5b600182039050919050565b7f4e6f206d61746368696e672076616c756174696f6e20666f756e640000000000600082015250565b6000614331601b83612e7d565b915061433c826142fb565b602082019050919050565b6000602082019050818103600083015261436081614324565b9050919050565b600081905092915050565b600061437d82612e72565b6143878185614367565b9350614397818560208601612e8e565b80840191505092915050565b60006143af8285614372565b91506143bb8284614372565b91508190509392505050565b7f4552433732313a207472616e736665722066726f6d20696e636f72726563742060008201527f6f776e6572000000000000000000000000000000000000000000000000000000602082015250565b6000614423602583612e7d565b915061442e826143c7565b604082019050919050565b6000602082019050818103600083015261445281614416565b9050919050565b7f4552433732313a207472616e7366657220746f20746865207a65726f2061646460008201527f7265737300000000000000000000000000000000000000000000000000000000602082015250565b60006144b5602483612e7d565b91506144c082614459565b604082019050919050565b600060208201905081810360008301526144e4816144a8565b9050919050565b7f4552433732313a20617070726f766520746f2063616c6c657200000000000000600082015250565b6000614521601983612e7d565b915061452c826144eb565b602082019050919050565b6000602082019050818103600083015261455081614514565b9050919050565b7f4552433732313a207472616e7366657220746f206e6f6e20455243373231526560008201527f63656976657220696d706c656d656e7465720000000000000000000000000000602082015250565b60006145b3603283612e7d565b91506145be82614557565b604082019050919050565b600060208201905081810360008301526145e2816145a6565b9050919050565b7f416363657373436f6e74726f6c3a206163636f756e7420000000000000000000600082015250565b600061461f601783614367565b915061462a826145e9565b601782019050919050565b7f206973206d697373696e6720726f6c6520000000000000000000000000000000600082015250565b600061466b601183614367565b915061467682614635565b601182019050919050565b600061468c82614612565b91506146988285614372565b91506146a38261465e565b91506146af8284614372565b91508190509392505050565b600081519050919050565b600082825260208201905092915050565b60006146e2826146bb565b6146ec81856146c6565b93506146fc818560208601612e8e565b61470581612eb8565b840191505092915050565b60006080820190506147256000830187612fb9565b6147326020830186612fb9565b61473f604083018561304f565b818103606083015261475181846146d7565b905095945050505050565b60008151905061476b81612de3565b92915050565b60006020828403121561478757614786612dad565b5b60006147958482850161475c565b91505092915050565b7f537472696e67733a20686578206c656e67746820696e73756666696369656e74600082015250565b60006147d4602083612e7d565b91506147df8261479e565b602082019050919050565b60006020820190508181036000830152614803816147c7565b9050919050565b7f4552433732313a206d696e7420746f20746865207a65726f2061646472657373600082015250565b6000614840602083612e7d565b915061484b8261480a565b602082019050919050565b6000602082019050818103600083015261486f81614833565b9050919050565b7f4552433732313a20746f6b656e20616c7265616479206d696e74656400000000600082015250565b60006148ac601c83612e7d565b91506148b782614876565b602082019050919050565b600060208201905081810360008301526148db8161489f565b905091905056fea26469706673582212201f057e89616b0e5d003ca286fb34ad1bed428574056ad4f0551984b9a63f5c9864736f6c63430008140033",
  "linkReferences": {},
  "deployedLinkReferences": {}
}