{
  "_format": "hh-sol-artifact-1",
  "contractName": "PropertyNFT",
  "sourceName": "src/contracts/PropertyNFT.sol",
  "abi": [
    {
      "inputs": [],
      "stateMutability": "nonpayable",
      "type": "constructor"
    },
    {
      "anonymous": false,
      "inputs": [
        {
          "indexed": true,
          "internalType": "address",
          "name": "owner",
          "type": "address"
        },
        {
          "indexed": true,
          "internalType": "address",
          "name": "approved",
          "type": "address"
        },
        {
          "indexed": true,
          "internalType": "uint256",
          "name": "tokenId",
          "type": "uint256"
        }
      ],
      "name": "Approval",
      "type": "event"
    },
    {
      "anonymous": false,
      "inputs": [
        {
          "indexed": true,
          "internalType": "address",
          "name": "owner",
          "type": "address"
        },
        {
          "indexed": true,
          "internalType": "address",
          "name": "operator",
          "type": "address"
        },
        {
          "indexed": false,
          "internalType": "bool",
          "name": "approved",
          "type": "bool"
        }
      ],
      "name": "ApprovalForAll",
      "type": "event"
    },
    {
      "anonymous": false,
      "inputs": [
        {
          "indexed": false,
          "internalType": "uint256",
          "name": "_fromTokenId",
          "type": "uint256"
        },
        {
          "indexed": false,
          "internalType": "uint256",
          "name": "_toTokenId",
          "type": "uint256"
        }
      ],
      "name": "BatchMetadataUpdate",
      "type": "event"
    },
    {
      "anonymous": false,
      "inputs": [
        {
          "indexed": false,
          "internalType": "uint256",
          "name": "_tokenId",
          "type": "uint256"
        }
      ],
      "name": "MetadataUpdate",
      "type": "event"
    },
    {
      "anonymous": false,
      "inputs": [
        {
          "indexed": true,
          "internalType": "address",
          "name": "previousOwner",
          "type": "address"
        },
        {
          "indexed": true,
          "internalType": "address",
          "name": "newOwner",
          "type": "address"
        }
      ],
      "name": "OwnershipTransferred",
      "type": "event"
    },
    {
      "anonymous": false,
      "inputs": [
        {
          "indexed": true,
          "internalType": "uint256",
          "name": "tokenId",
          "type": "uint256"
        },
        {
          "indexed": true,
          "internalType": "address",
          "name": "owner",
          "type": "address"
        },
        {
          "indexed": false,
          "internalType": "string",
          "name": "uri",
          "type": "string"
        }
      ],
      "name": "PropertyMinted",
      "type": "event"
    },
    {
      "anonymous": false,
      "inputs": [
        {
          "indexed": true,
          "internalType": "address",
          "name": "from",
          "type": "address"
        },
        {
          "indexed": true,
          "internalType": "address",
          "name": "to",
          "type": "address"
        },
        {
          "indexed": true,
          "internalType": "uint256",
          "name": "tokenId",
          "type": "uint256"
        }
      ],
      "name": "Transfer",
      "type": "event"
    },
    {
      "anonymous": false,
      "inputs": [
        {
          "indexed": true,
          "internalType": "uint256",
          "name": "tokenId",
          "type": "uint256"
        },
        {
          "indexed": false,
          "internalType": "uint256",
          "name": "amount",
          "type": "uint256"
        },
        {
          "indexed": false,
          "internalType": "string",
          "name": "currency",
          "type": "string"
        },
        {
          "indexed": false,
          "internalType": "address",
          "name": "validator",
          "type": "address"
        }
      ],
      "name": "ValuationAdded",
      "type": "event"
    },
    {
      "inputs": [
        {
          "internalType": "uint256",
          "name": "tokenId",
          "type": "uint256"
        },
        {
          "internalType": "uint256",
          "name": "amount",
          "type": "uint256"
        },
        {
          "internalType": "string",
          "name": "currency",
          "type": "string"
        },
        {
          "internalType": "address",
          "name": "validator",
          "type": "address"
        }
      ],
      "name": "addValuation",
      "outputs": [],
      "stateMutability": "nonpayable",
      "type": "function"
    },
    {
      "inputs": [
        {
          "internalType": "address",
          "name": "to",
          "type": "address"
        },
        {
          "internalType": "uint256",
          "name": "tokenId",
          "type": "uint256"
        }
      ],
      "name": "approve",
      "outputs": [],
      "stateMutability": "nonpayable",
      "type": "function"
    },
    {
      "inputs": [
        {
          "internalType": "address",
          "name": "owner",
          "type": "address"
        }
      ],
      "name": "balanceOf",
      "outputs": [
        {
          "internalType": "uint256",
          "name": "",
          "type": "uint256"
        }
      ],
      "stateMutability": "view",
      "type": "function"
    },
    {
      "inputs": [
        {
          "internalType": "uint256",
          "name": "tokenId",
          "type": "uint256"
        }
      ],
      "name": "getApproved",
      "outputs": [
        {
          "internalType": "address",
          "name": "",
          "type": "address"
        }
      ],
      "stateMutability": "view",
      "type": "function"
    },
    {
      "inputs": [
        {
          "internalType": "uint256",
          "name": "tokenId",
          "type": "uint256"
        }
      ],
      "name": "getLatestValuation",
      "outputs": [
        {
          "components": [
            {
              "internalType": "uint256",
              "name": "amount",
              "type": "uint256"
            },
            {
              "internalType": "string",
              "name": "currency",
              "type": "string"
            },
            {
              "internalType": "uint256",
              "name": "timestamp",
              "type": "uint256"
            },
            {
              "internalType": "address",
              "name": "validator",
              "type": "address"
            }
          ],
          "internalType": "struct PropertyNFT.Valuation",
          "name": "",
          "type": "tuple"
        }
      ],
      "stateMutability": "view",
      "type": "function"
    },
    {
      "inputs": [
        {
          "internalType": "uint256",
          "name": "tokenId",
          "type": "uint256"
        }
      ],
      "name": "getValuationHistory",
      "outputs": [
        {
          "components": [
            {
              "internalType": "uint256",
              "name": "amount",
              "type": "uint256"
            },
            {
              "internalType": "string",
              "name": "currency",
              "type": "string"
            },
            {
              "internalType": "uint256",
              "name": "timestamp",
              "type": "uint256"
            },
            {
              "internalType": "address",
              "name": "validator",
              "type": "address"
            }
          ],
          "internalType": "struct PropertyNFT.Valuation[]",
          "name": "",
          "type": "tuple[]"
        }
      ],
      "stateMutability": "view",
      "type": "function"
    },
    {
      "inputs": [
        {
          "internalType": "address",
          "name": "owner",
          "type": "address"
        },
        {
          "internalType": "address",
          "name": "operator",
          "type": "address"
        }
      ],
      "name": "isApprovedForAll",
      "outputs": [
        {
          "internalType": "bool",
          "name": "",
          "type": "bool"
        }
      ],
      "stateMutability": "view",
      "type": "function"
    },
    {
      "inputs": [
        {
          "internalType": "address",
          "name": "to",
          "type": "address"
        },
        {
          "internalType": "string",
          "name": "uri",
          "type": "string"
        }
      ],
      "name": "mintProperty",
      "outputs": [
        {
          "internalType": "uint256",
          "name": "",
          "type": "uint256"
        }
      ],
      "stateMutability": "nonpayable",
      "type": "function"
    },
    {
      "inputs": [],
      "name": "name",
      "outputs": [
        {
          "internalType": "string",
          "name": "",
          "type": "string"
        }
      ],
      "stateMutability": "view",
      "type": "function"
    },
    {
      "inputs": [],
      "name": "owner",
      "outputs": [
        {
          "internalType": "address",
          "name": "",
          "type": "address"
        }
      ],
      "stateMutability": "view",
      "type": "function"
    },
    {
      "inputs": [
        {
          "internalType": "uint256",
          "name": "tokenId",
          "type": "uint256"
        }
      ],
      "name": "ownerOf",
      "outputs": [
        {
          "internalType": "address",
          "name": "",
          "type": "address"
        }
      ],
      "stateMutability": "view",
      "type": "function"
    },
    {
      "inputs": [],
      "name": "renounceOwnership",
      "outputs": [],
      "stateMutability": "nonpayable",
      "type": "function"
    },
    {
      "inputs": [
        {
          "internalType": "address",
          "name": "from",
          "type": "address"
        },
        {
          "internalType": "address",
          "name": "to",
          "type": "address"
        },
        {
          "internalType": "uint256",
          "name": "tokenId",
          "type": "uint256"
        }
      ],
      "name": "safeTransferFrom",
      "outputs": [],
      "stateMutability": "nonpayable",
      "type": "function"
    },
    {
      "inputs": [
        {
          "internalType": "address",
          "name": "from",
          "type": "address"
        },
        {
          "internalType": "address",
          "name": "to",
          "type": "address"
        },
        {
          "internalType": "uint256",
          "name": "tokenId",
          "type": "uint256"
        },
        {
          "internalType": "bytes",
          "name": "data",
          "type": "bytes"
        }
      ],
      "name": "safeTransferFrom",
      "outputs": [],
      "stateMutability": "nonpayable",
      "type": "function"
    },
    {
      "inputs": [
        {
          "internalType": "address",
          "name": "operator",
          "type": "address"
        },
        {
          "internalType": "bool",
          "name": "approved",
          "type": "bool"
        }
      ],
      "name": "setApprovalForAll",
      "outputs": [],
      "stateMutability": "nonpayable",
      "type": "function"
    },
    {
      "inputs": [
        {
          "internalType": "bytes4",
          "name": "interfaceId",
          "type": "bytes4"
        }
      ],
      "name": "supportsInterface",
      "outputs": [
        {
          "internalType": "bool",
          "name": "",
          "type": "bool"
        }
      ],
      "stateMutability": "view",
      "type": "function"
    },
    {
      "inputs": [],
      "name": "symbol",
      "outputs": [
        {
          "internalType": "string",
          "name": "",
          "type": "string"
        }
      ],
      "stateMutability": "view",
      "type": "function"
    },
    {
      "inputs": [
        {
          "internalType": "uint256",
          "name": "tokenId",
          "type": "uint256"
        }
      ],
      "name": "tokenURI",
      "outputs": [
        {
          "internalType": "string",
          "name": "",
          "type": "string"
        }
      ],
      "stateMutability": "view",
      "type": "function"
    },
    {
      "inputs": [
        {
          "internalType": "address",
          "name": "from",
          "type": "address"
        },
        {
          "internalType": "address",
          "name": "to",
          "type": "address"
        },
        {
          "internalType": "uint256",
          "name": "tokenId",
          "type": "uint256"
        }
      ],
      "name": "transferFrom",
      "outputs": [],
      "stateMutability": "nonpayable",
      "type": "function"
    },
    {
      "inputs": [
        {
          "internalType": "address",
          "name": "newOwner",
          "type": "address"
        }
      ],
      "name": "transferOwnership",
      "outputs": [],
      "stateMutability": "nonpayable",
      "type": "function"
    }
  ],
  "bytecode": "0x60806040523480156200001157600080fd5b506040518060400160405280601181526020017f4d6170436861696e2050726f70657274790000000000000000000000000000008152506040518060400160405280600381526020017f4d4350000000000000000000000000000000000000000000000000000000000081525081600090816200008f919062000412565b508060019081620000a1919062000412565b505050620000c4620000b8620000ca60201b60201c565b620000d260201b60201c565b620004f9565b600033905090565b6000600760009054906101000a900473ffffffffffffffffffffffffffffffffffffffff16905081600760006101000a81548173ffffffffffffffffffffffffffffffffffffffff021916908373ffffffffffffffffffffffffffffffffffffffff1602179055508173ffffffffffffffffffffffffffffffffffffffff168173ffffffffffffffffffffffffffffffffffffffff167f8be0079c531659141344cd1fd0a4f28419497f9722a3daafe3b4186f6b6457e060405160405180910390a35050565b600081519050919050565b7f4e487b7100000000000000000000000000000000000000000000000000000000600052604160045260246000fd5b7f4e487b7100000000000000000000000000000000000000000000000000000000600052602260045260246000fd5b600060028204905060018216806200021a57607f821691505b60208210810362000230576200022f620001d2565b5b50919050565b60008190508160005260206000209050919050565b60006020601f8301049050919050565b600082821b905092915050565b6000600883026200029a7fffffffffffffffffffffffffffffffffffffffffffffffffffffffffffffffff826200025b565b620002a686836200025b565b95508019841693508086168417925050509392505050565b6000819050919050565b6000819050919050565b6000620002f3620002ed620002e784620002be565b620002c8565b620002be565b9050919050565b6000819050919050565b6200030f83620002d2565b620003276200031e82620002fa565b84845462000268565b825550505050565b600090565b6200033e6200032f565b6200034b81848462000304565b505050565b5b8181101562000373576200036760008262000334565b60018101905062000351565b5050565b601f821115620003c2576200038c8162000236565b62000397846200024b565b81016020851015620003a7578190505b620003bf620003b6856200024b565b83018262000350565b50505b505050565b600082821c905092915050565b6000620003e760001984600802620003c7565b1980831691505092915050565b6000620004028383620003d4565b9150826002028217905092915050565b6200041d8262000198565b67ffffffffffffffff811115620004395762000438620001a3565b5b62000445825462000201565b6200045282828562000377565b600060209050601f8311600181146200048a576000841562000475578287015190505b620004818582620003f4565b865550620004f1565b601f1984166200049a8662000236565b60005b82811015620004c4578489015182556001820191506020850194506020810190506200049d565b86831015620004e45784890151620004e0601f891682620003d4565b8355505b6001600288020188555050505b505050505050565b613a8180620005096000396000f3fe608060405234801561001057600080fd5b506004361061012c5760003560e01c806370a08231116100ad578063b88d4fde11610071578063b88d4fde14610355578063c87b56dd14610371578063da34747e146103a1578063e985e9c5146103bd578063f2fde38b146103ed5761012c565b806370a08231146102c3578063715018a6146102f35780638da5cb5b146102fd57806395d89b411461031b578063a22cb465146103395761012c565b806323b872dd116100f457806323b872dd146101fb57806342842e0e1461021757806352f041e8146102335780636352211e14610263578063705bc788146102935761012c565b806301ffc9a71461013157806306fdde0314610161578063081812fc1461017f578063095ea7b3146101af578063177dc17f146101cb575b600080fd5b61014b600480360381019061014691906123a7565b610409565b60405161015891906123ef565b60405180910390f35b61016961041b565b604051610176919061249a565b60405180910390f35b610199600480360381019061019491906124f2565b6104ad565b6040516101a69190612560565b60405180910390f35b6101c960048036038101906101c491906125a7565b6104f3565b005b6101e560048036038101906101e0919061271c565b61060a565b6040516101f29190612787565b60405180910390f35b610215600480360381019061021091906127a2565b610691565b005b610231600480360381019061022c91906127a2565b6106f1565b005b61024d600480360381019061024891906124f2565b610711565b60405161025a9190612982565b60405180910390f35b61027d600480360381019061027891906124f2565b6108c7565b60405161028a9190612560565b60405180910390f35b6102ad60048036038101906102a891906124f2565b61094d565b6040516102ba9190612a07565b60405180910390f35b6102dd60048036038101906102d89190612a29565b610b59565b6040516102ea9190612787565b60405180910390f35b6102fb610c10565b005b610305610c24565b6040516103129190612560565b60405180910390f35b610323610c4e565b604051610330919061249a565b60405180910390f35b610353600480360381019061034e9190612a82565b610ce0565b005b61036f600480360381019061036a9190612b63565b610cf6565b005b61038b600480360381019061038691906124f2565b610d58565b604051610398919061249a565b60405180910390f35b6103bb60048036038101906103b69190612be6565b610d6a565b005b6103d760048036038101906103d29190612c69565b610f4f565b6040516103e491906123ef565b60405180910390f35b61040760048036038101906104029190612a29565b610fe3565b005b600061041482611066565b9050919050565b60606000805461042a90612cd8565b80601f016020809104026020016040519081016040528092919081815260200182805461045690612cd8565b80156104a35780601f10610478576101008083540402835291602001916104a3565b820191906000526020600020905b81548152906001019060200180831161048657829003601f168201915b5050505050905090565b60006104b8826110c7565b6004600083815260200190815260200160002060009054906101000a900473ffffffffffffffffffffffffffffffffffffffff169050919050565b60006104fe826108c7565b90508073ffffffffffffffffffffffffffffffffffffffff168373ffffffffffffffffffffffffffffffffffffffff160361056e576040517f08c379a000000000000000000000000000000000000000000000000000000000815260040161056590612d7b565b60405180910390fd5b8073ffffffffffffffffffffffffffffffffffffffff1661058d611112565b73ffffffffffffffffffffffffffffffffffffffff1614806105bc57506105bb816105b6611112565b610f4f565b5b6105fb576040517f08c379a00000000000000000000000000000000000000000000000000000000081526004016105f290612e0d565b60405180910390fd5b610605838361111a565b505050565b600061061660086111d3565b600061062260086111e9565b905061062e84826111f7565b6106388184611215565b8373ffffffffffffffffffffffffffffffffffffffff16817f0d6a75679ec9091a61a3192722f7073bfdf34a0e67c61c08484adef28bfa375a8560405161067f919061249a565b60405180910390a38091505092915050565b6106a261069c611112565b826112b9565b6106e1576040517f08c379a00000000000000000000000000000000000000000000000000000000081526004016106d890612e9f565b60405180910390fd5b6106ec83838361134e565b505050565b61070c83838360405180602001604052806000815250610cf6565b505050565b606061071c82611647565b61075b576040517f08c379a000000000000000000000000000000000000000000000000000000000815260040161075290612f0b565b60405180910390fd5b60096000838152602001908152602001600020805480602002602001604051908101604052809291908181526020016000905b828210156108bc5783829060005260206000209060040201604051806080016040529081600082015481526020016001820180546107cb90612cd8565b80601f01602080910402602001604051908101604052809291908181526020018280546107f790612cd8565b80156108445780601f1061081957610100808354040283529160200191610844565b820191906000526020600020905b81548152906001019060200180831161082757829003601f168201915b50505050508152602001600282015481526020016003820160009054906101000a900473ffffffffffffffffffffffffffffffffffffffff1673ffffffffffffffffffffffffffffffffffffffff1673ffffffffffffffffffffffffffffffffffffffff16815250508152602001906001019061078e565b505050509050919050565b6000806108d383611688565b9050600073ffffffffffffffffffffffffffffffffffffffff168173ffffffffffffffffffffffffffffffffffffffff1603610944576040517f08c379a000000000000000000000000000000000000000000000000000000000815260040161093b90612f77565b60405180910390fd5b80915050919050565b6109556122fd565b61095e82611647565b61099d576040517f08c379a000000000000000000000000000000000000000000000000000000000815260040161099490612f0b565b60405180910390fd5b60006009600084815260200190815260200160002080549050116109f6576040517f08c379a00000000000000000000000000000000000000000000000000000000081526004016109ed90612fe3565b60405180910390fd5b6009600083815260200190815260200160002060016009600085815260200190815260200160002080549050610a2c9190613032565b81548110610a3d57610a3c613066565b5b906000526020600020906004020160405180608001604052908160008201548152602001600182018054610a7090612cd8565b80601f0160208091040260200160405190810160405280929190818152602001828054610a9c90612cd8565b8015610ae95780601f10610abe57610100808354040283529160200191610ae9565b820191906000526020600020905b815481529060010190602001808311610acc57829003601f168201915b50505050508152602001600282015481526020016003820160009054906101000a900473ffffffffffffffffffffffffffffffffffffffff1673ffffffffffffffffffffffffffffffffffffffff1673ffffffffffffffffffffffffffffffffffffffff16815250509050919050565b60008073ffffffffffffffffffffffffffffffffffffffff168273ffffffffffffffffffffffffffffffffffffffff1603610bc9576040517f08c379a0000000000000000000000000000000000000000000000000000000008152600401610bc090613107565b60405180910390fd5b600360008373ffffffffffffffffffffffffffffffffffffffff1673ffffffffffffffffffffffffffffffffffffffff168152602001908152602001600020549050919050565b610c186116c5565b610c226000611743565b565b6000600760009054906101000a900473ffffffffffffffffffffffffffffffffffffffff16905090565b606060018054610c5d90612cd8565b80601f0160208091040260200160405190810160405280929190818152602001828054610c8990612cd8565b8015610cd65780601f10610cab57610100808354040283529160200191610cd6565b820191906000526020600020905b815481529060010190602001808311610cb957829003601f168201915b5050505050905090565b610cf2610ceb611112565b8383611809565b5050565b610d07610d01611112565b836112b9565b610d46576040517f08c379a0000000000000000000000000000000000000000000000000000000008152600401610d3d90612e9f565b60405180910390fd5b610d5284848484611975565b50505050565b6060610d63826119d1565b9050919050565b610d7384611647565b610db2576040517f08c379a0000000000000000000000000000000000000000000000000000000008152600401610da990612f0b565b60405180910390fd5b600073ffffffffffffffffffffffffffffffffffffffff168173ffffffffffffffffffffffffffffffffffffffff1603610e21576040517f08c379a0000000000000000000000000000000000000000000000000000000008152600401610e1890613173565b60405180910390fd5b600060405180608001604052808581526020018481526020014281526020018373ffffffffffffffffffffffffffffffffffffffff16815250905060096000868152602001908152602001600020819080600181540180825580915050600190039060005260206000209060040201600090919091909150600082015181600001556020820151816001019081610eb8919061333f565b506040820151816002015560608201518160030160006101000a81548173ffffffffffffffffffffffffffffffffffffffff021916908373ffffffffffffffffffffffffffffffffffffffff1602179055505050847fa2bf2185995da2b9bb4614ddf0d93e143c069af92564680730b12f37b4a8ad83858585604051610f4093929190613411565b60405180910390a25050505050565b6000600560008473ffffffffffffffffffffffffffffffffffffffff1673ffffffffffffffffffffffffffffffffffffffff16815260200190815260200160002060008373ffffffffffffffffffffffffffffffffffffffff1673ffffffffffffffffffffffffffffffffffffffff16815260200190815260200160002060009054906101000a900460ff16905092915050565b610feb6116c5565b600073ffffffffffffffffffffffffffffffffffffffff168173ffffffffffffffffffffffffffffffffffffffff160361105a576040517f08c379a0000000000000000000000000000000000000000000000000000000008152600401611051906134c1565b60405180910390fd5b61106381611743565b50565b6000634906490660e01b7bffffffffffffffffffffffffffffffffffffffffffffffffffffffff1916827bffffffffffffffffffffffffffffffffffffffffffffffffffffffff191614806110c057506110bf82611ae3565b5b9050919050565b6110d081611647565b61110f576040517f08c379a000000000000000000000000000000000000000000000000000000000815260040161110690612f77565b60405180910390fd5b50565b600033905090565b816004600083815260200190815260200160002060006101000a81548173ffffffffffffffffffffffffffffffffffffffff021916908373ffffffffffffffffffffffffffffffffffffffff160217905550808273ffffffffffffffffffffffffffffffffffffffff1661118d836108c7565b73ffffffffffffffffffffffffffffffffffffffff167f8c5be1e5ebec7d5bd14f71427d1e84f3dd0314c0f7b2291e5b200ac8c7c3b92560405160405180910390a45050565b6001816000016000828254019250508190555050565b600081600001549050919050565b611211828260405180602001604052806000815250611bc5565b5050565b61121e82611647565b61125d576040517f08c379a000000000000000000000000000000000000000000000000000000000815260040161125490613553565b60405180910390fd5b8060066000848152602001908152602001600020908161127d919061333f565b507ff8e1a15aba9398e019f0b49df1a4fde98ee17ae345cb5f6b5e2c27f5033e8ce7826040516112ad9190612787565b60405180910390a15050565b6000806112c5836108c7565b90508073ffffffffffffffffffffffffffffffffffffffff168473ffffffffffffffffffffffffffffffffffffffff16148061130757506113068185610f4f565b5b8061134557508373ffffffffffffffffffffffffffffffffffffffff1661132d846104ad565b73ffffffffffffffffffffffffffffffffffffffff16145b91505092915050565b8273ffffffffffffffffffffffffffffffffffffffff1661136e826108c7565b73ffffffffffffffffffffffffffffffffffffffff16146113c4576040517f08c379a00000000000000000000000000000000000000000000000000000000081526004016113bb906135e5565b60405180910390fd5b600073ffffffffffffffffffffffffffffffffffffffff168273ffffffffffffffffffffffffffffffffffffffff1603611433576040517f08c379a000000000000000000000000000000000000000000000000000000000815260040161142a90613677565b60405180910390fd5b6114408383836001611c20565b8273ffffffffffffffffffffffffffffffffffffffff16611460826108c7565b73ffffffffffffffffffffffffffffffffffffffff16146114b6576040517f08c379a00000000000000000000000000000000000000000000000000000000081526004016114ad906135e5565b60405180910390fd5b6004600082815260200190815260200160002060006101000a81549073ffffffffffffffffffffffffffffffffffffffff02191690556001600360008573ffffffffffffffffffffffffffffffffffffffff1673ffffffffffffffffffffffffffffffffffffffff168152602001908152602001600020600082825403925050819055506001600360008473ffffffffffffffffffffffffffffffffffffffff1673ffffffffffffffffffffffffffffffffffffffff16815260200190815260200160002060008282540192505081905550816002600083815260200190815260200160002060006101000a81548173ffffffffffffffffffffffffffffffffffffffff021916908373ffffffffffffffffffffffffffffffffffffffff160217905550808273ffffffffffffffffffffffffffffffffffffffff168473ffffffffffffffffffffffffffffffffffffffff167fddf252ad1be2c89b69c2b068fc378daa952ba7f163c4a11628f55a4df523b3ef60405160405180910390a46116428383836001611c26565b505050565b60008073ffffffffffffffffffffffffffffffffffffffff1661166983611688565b73ffffffffffffffffffffffffffffffffffffffff1614159050919050565b60006002600083815260200190815260200160002060009054906101000a900473ffffffffffffffffffffffffffffffffffffffff169050919050565b6116cd611112565b73ffffffffffffffffffffffffffffffffffffffff166116eb610c24565b73ffffffffffffffffffffffffffffffffffffffff1614611741576040517f08c379a0000000000000000000000000000000000000000000000000000000008152600401611738906136e3565b60405180910390fd5b565b6000600760009054906101000a900473ffffffffffffffffffffffffffffffffffffffff16905081600760006101000a81548173ffffffffffffffffffffffffffffffffffffffff021916908373ffffffffffffffffffffffffffffffffffffffff1602179055508173ffffffffffffffffffffffffffffffffffffffff168173ffffffffffffffffffffffffffffffffffffffff167f8be0079c531659141344cd1fd0a4f28419497f9722a3daafe3b4186f6b6457e060405160405180910390a35050565b8173ffffffffffffffffffffffffffffffffffffffff168373ffffffffffffffffffffffffffffffffffffffff1603611877576040517f08c379a000000000000000000000000000000000000000000000000000000000815260040161186e9061374f565b60405180910390fd5b80600560008573ffffffffffffffffffffffffffffffffffffffff1673ffffffffffffffffffffffffffffffffffffffff16815260200190815260200160002060008473ffffffffffffffffffffffffffffffffffffffff1673ffffffffffffffffffffffffffffffffffffffff16815260200190815260200160002060006101000a81548160ff0219169083151502179055508173ffffffffffffffffffffffffffffffffffffffff168373ffffffffffffffffffffffffffffffffffffffff167f17307eab39ab6107e8899845ad3d59bd9653f200f220920489ca2b5937696c318360405161196891906123ef565b60405180910390a3505050565b61198084848461134e565b61198c84848484611c2c565b6119cb576040517f08c379a00000000000000000000000000000000000000000000000000000000081526004016119c2906137e1565b60405180910390fd5b50505050565b60606119dc826110c7565b60006006600084815260200190815260200160002080546119fc90612cd8565b80601f0160208091040260200160405190810160405280929190818152602001828054611a2890612cd8565b8015611a755780601f10611a4a57610100808354040283529160200191611a75565b820191906000526020600020905b815481529060010190602001808311611a5857829003601f168201915b505050505090506000611a86611db3565b90506000815103611a9b578192505050611ade565b600082511115611ad0578082604051602001611ab892919061383d565b60405160208183030381529060405292505050611ade565b611ad984611dca565b925050505b919050565b60007f80ac58cd000000000000000000000000000000000000000000000000000000007bffffffffffffffffffffffffffffffffffffffffffffffffffffffff1916827bffffffffffffffffffffffffffffffffffffffffffffffffffffffff19161480611bae57507f5b5e139f000000000000000000000000000000000000000000000000000000007bffffffffffffffffffffffffffffffffffffffffffffffffffffffff1916827bffffffffffffffffffffffffffffffffffffffffffffffffffffffff1916145b80611bbe5750611bbd82611e32565b5b9050919050565b611bcf8383611e9c565b611bdc6000848484611c2c565b611c1b576040517f08c379a0000000000000000000000000000000000000000000000000000000008152600401611c12906137e1565b60405180910390fd5b505050565b50505050565b50505050565b6000611c4d8473ffffffffffffffffffffffffffffffffffffffff166120b9565b15611da6578373ffffffffffffffffffffffffffffffffffffffff1663150b7a02611c76611112565b8786866040518563ffffffff1660e01b8152600401611c9894939291906138b6565b6020604051808303816000875af1925050508015611cd457506040513d601f19601f82011682018060405250810190611cd19190613917565b60015b611d56573d8060008114611d04576040519150601f19603f3d011682016040523d82523d6000602084013e611d09565b606091505b506000815103611d4e576040517f08c379a0000000000000000000000000000000000000000000000000000000008152600401611d45906137e1565b60405180910390fd5b805181602001fd5b63150b7a0260e01b7bffffffffffffffffffffffffffffffffffffffffffffffffffffffff1916817bffffffffffffffffffffffffffffffffffffffffffffffffffffffff191614915050611dab565b600190505b949350505050565b606060405180602001604052806000815250905090565b6060611dd5826110c7565b6000611ddf611db3565b90506000815111611dff5760405180602001604052806000815250611e2a565b80611e09846120dc565b604051602001611e1a92919061383d565b6040516020818303038152906040525b915050919050565b60007f01ffc9a7000000000000000000000000000000000000000000000000000000007bffffffffffffffffffffffffffffffffffffffffffffffffffffffff1916827bffffffffffffffffffffffffffffffffffffffffffffffffffffffff1916149050919050565b600073ffffffffffffffffffffffffffffffffffffffff168273ffffffffffffffffffffffffffffffffffffffff1603611f0b576040517f08c379a0000000000000000000000000000000000000000000000000000000008152600401611f0290613990565b60405180910390fd5b611f1481611647565b15611f54576040517f08c379a0000000000000000000000000000000000000000000000000000000008152600401611f4b906139fc565b60405180910390fd5b611f62600083836001611c20565b611f6b81611647565b15611fab576040517f08c379a0000000000000000000000000000000000000000000000000000000008152600401611fa2906139fc565b60405180910390fd5b6001600360008473ffffffffffffffffffffffffffffffffffffffff1673ffffffffffffffffffffffffffffffffffffffff16815260200190815260200160002060008282540192505081905550816002600083815260200190815260200160002060006101000a81548173ffffffffffffffffffffffffffffffffffffffff021916908373ffffffffffffffffffffffffffffffffffffffff160217905550808273ffffffffffffffffffffffffffffffffffffffff16600073ffffffffffffffffffffffffffffffffffffffff167fddf252ad1be2c89b69c2b068fc378daa952ba7f163c4a11628f55a4df523b3ef60405160405180910390a46120b5600083836001611c26565b5050565b6000808273ffffffffffffffffffffffffffffffffffffffff163b119050919050565b6060600060016120eb846121aa565b01905060008167ffffffffffffffff81111561210a576121096125f1565b5b6040519080825280601f01601f19166020018201604052801561213c5781602001600182028036833780820191505090505b509050600082602001820190505b60011561219f578080600190039150507f3031323334353637383961626364656600000000000000000000000000000000600a86061a8153600a858161219357612192613a1c565b5b0494506000850361214a575b819350505050919050565b600080600090507a184f03e93ff9f4daa797ed6e38ed64bf6a1f0100000000000000008310612208577a184f03e93ff9f4daa797ed6e38ed64bf6a1f01000000000000000083816121fe576121fd613a1c565b5b0492506040810190505b6d04ee2d6d415b85acef81000000008310612245576d04ee2d6d415b85acef8100000000838161223b5761223a613a1c565b5b0492506020810190505b662386f26fc10000831061227457662386f26fc10000838161226a57612269613a1c565b5b0492506010810190505b6305f5e100831061229d576305f5e100838161229357612292613a1c565b5b0492506008810190505b61271083106122c25761271083816122b8576122b7613a1c565b5b0492506004810190505b606483106122e557606483816122db576122da613a1c565b5b0492506002810190505b600a83106122f4576001810190505b80915050919050565b6040518060800160405280600081526020016060815260200160008152602001600073ffffffffffffffffffffffffffffffffffffffff1681525090565b6000604051905090565b600080fd5b600080fd5b60007fffffffff0000000000000000000000000000000000000000000000000000000082169050919050565b6123848161234f565b811461238f57600080fd5b50565b6000813590506123a18161237b565b92915050565b6000602082840312156123bd576123bc612345565b5b60006123cb84828501612392565b91505092915050565b60008115159050919050565b6123e9816123d4565b82525050565b600060208201905061240460008301846123e0565b92915050565b600081519050919050565b600082825260208201905092915050565b60005b83811015612444578082015181840152602081019050612429565b60008484015250505050565b6000601f19601f8301169050919050565b600061246c8261240a565b6124768185612415565b9350612486818560208601612426565b61248f81612450565b840191505092915050565b600060208201905081810360008301526124b48184612461565b905092915050565b6000819050919050565b6124cf816124bc565b81146124da57600080fd5b50565b6000813590506124ec816124c6565b92915050565b60006020828403121561250857612507612345565b5b6000612516848285016124dd565b91505092915050565b600073ffffffffffffffffffffffffffffffffffffffff82169050919050565b600061254a8261251f565b9050919050565b61255a8161253f565b82525050565b60006020820190506125756000830184612551565b92915050565b6125848161253f565b811461258f57600080fd5b50565b6000813590506125a18161257b565b92915050565b600080604083850312156125be576125bd612345565b5b60006125cc85828601612592565b92505060206125dd858286016124dd565b9150509250929050565b600080fd5b600080fd5b7f4e487b7100000000000000000000000000000000000000000000000000000000600052604160045260246000fd5b61262982612450565b810181811067ffffffffffffffff82111715612648576126476125f1565b5b80604052505050565b600061265b61233b565b90506126678282612620565b919050565b600067ffffffffffffffff821115612687576126866125f1565b5b61269082612450565b9050602081019050919050565b82818337600083830152505050565b60006126bf6126ba8461266c565b612651565b9050828152602081018484840111156126db576126da6125ec565b5b6126e684828561269d565b509392505050565b600082601f830112612703576127026125e7565b5b81356127138482602086016126ac565b91505092915050565b6000806040838503121561273357612732612345565b5b600061274185828601612592565b925050602083013567ffffffffffffffff8111156127625761276161234a565b5b61276e858286016126ee565b9150509250929050565b612781816124bc565b82525050565b600060208201905061279c6000830184612778565b92915050565b6000806000606084860312156127bb576127ba612345565b5b60006127c986828701612592565b93505060206127da86828701612592565b92505060406127eb868287016124dd565b9150509250925092565b600081519050919050565b600082825260208201905092915050565b6000819050602082019050919050565b61282a816124bc565b82525050565b600082825260208201905092915050565b600061284c8261240a565b6128568185612830565b9350612866818560208601612426565b61286f81612450565b840191505092915050565b6128838161253f565b82525050565b60006080830160008301516128a16000860182612821565b50602083015184820360208601526128b98282612841565b91505060408301516128ce6040860182612821565b5060608301516128e1606086018261287a565b508091505092915050565b60006128f88383612889565b905092915050565b6000602082019050919050565b6000612918826127f5565b6129228185612800565b93508360208202850161293485612811565b8060005b85811015612970578484038952815161295185826128ec565b945061295c83612900565b925060208a01995050600181019050612938565b50829750879550505050505092915050565b6000602082019050818103600083015261299c818461290d565b905092915050565b60006080830160008301516129bc6000860182612821565b50602083015184820360208601526129d48282612841565b91505060408301516129e96040860182612821565b5060608301516129fc606086018261287a565b508091505092915050565b60006020820190508181036000830152612a2181846129a4565b905092915050565b600060208284031215612a3f57612a3e612345565b5b6000612a4d84828501612592565b91505092915050565b612a5f816123d4565b8114612a6a57600080fd5b50565b600081359050612a7c81612a56565b92915050565b60008060408385031215612a9957612a98612345565b5b6000612aa785828601612592565b9250506020612ab885828601612a6d565b9150509250929050565b600067ffffffffffffffff821115612add57612adc6125f1565b5b612ae682612450565b9050602081019050919050565b6000612b06612b0184612ac2565b612651565b905082815260208101848484011115612b2257612b216125ec565b5b612b2d84828561269d565b509392505050565b600082601f830112612b4a57612b496125e7565b5b8135612b5a848260208601612af3565b91505092915050565b60008060008060808587031215612b7d57612b7c612345565b5b6000612b8b87828801612592565b9450506020612b9c87828801612592565b9350506040612bad878288016124dd565b925050606085013567ffffffffffffffff811115612bce57612bcd61234a565b5b612bda87828801612b35565b91505092959194509250565b60008060008060808587031215612c0057612bff612345565b5b6000612c0e878288016124dd565b9450506020612c1f878288016124dd565b935050604085013567ffffffffffffffff811115612c4057612c3f61234a565b5b612c4c878288016126ee565b9250506060612c5d87828801612592565b91505092959194509250565b60008060408385031215612c8057612c7f612345565b5b6000612c8e85828601612592565b9250506020612c9f85828601612592565b9150509250929050565b7f4e487b7100000000000000000000000000000000000000000000000000000000600052602260045260246000fd5b60006002820490506001821680612cf057607f821691505b602082108103612d0357612d02612ca9565b5b50919050565b7f4552433732313a20617070726f76616c20746f2063757272656e74206f776e6560008201527f7200000000000000000000000000000000000000000000000000000000000000602082015250565b6000612d65602183612415565b9150612d7082612d09565b604082019050919050565b60006020820190508181036000830152612d9481612d58565b9050919050565b7f4552433732313a20617070726f76652063616c6c6572206973206e6f7420746f60008201527f6b656e206f776e6572206f7220617070726f76656420666f7220616c6c000000602082015250565b6000612df7603d83612415565b9150612e0282612d9b565b604082019050919050565b60006020820190508181036000830152612e2681612dea565b9050919050565b7f4552433732313a2063616c6c6572206973206e6f7420746f6b656e206f776e6560008201527f72206f7220617070726f76656400000000000000000000000000000000000000602082015250565b6000612e89602d83612415565b9150612e9482612e2d565b604082019050919050565b60006020820190508181036000830152612eb881612e7c565b9050919050565b7f50726f706572747920646f6573206e6f74206578697374000000000000000000600082015250565b6000612ef5601783612415565b9150612f0082612ebf565b602082019050919050565b60006020820190508181036000830152612f2481612ee8565b9050919050565b7f4552433732313a20696e76616c696420746f6b656e2049440000000000000000600082015250565b6000612f61601883612415565b9150612f6c82612f2b565b602082019050919050565b60006020820190508181036000830152612f9081612f54565b9050919050565b7f4e6f2076616c756174696f6e7320796574000000000000000000000000000000600082015250565b6000612fcd601183612415565b9150612fd882612f97565b602082019050919050565b60006020820190508181036000830152612ffc81612fc0565b9050919050565b7f4e487b7100000000000000000000000000000000000000000000000000000000600052601160045260246000fd5b600061303d826124bc565b9150613048836124bc565b92508282039050818111156130605761305f613003565b5b92915050565b7f4e487b7100000000000000000000000000000000000000000000000000000000600052603260045260246000fd5b7f4552433732313a2061646472657373207a65726f206973206e6f74206120766160008201527f6c6964206f776e65720000000000000000000000000000000000000000000000602082015250565b60006130f1602983612415565b91506130fc82613095565b604082019050919050565b60006020820190508181036000830152613120816130e4565b9050919050565b7f496e76616c69642076616c696461746f72206164647265737300000000000000600082015250565b600061315d601983612415565b915061316882613127565b602082019050919050565b6000602082019050818103600083015261318c81613150565b9050919050565b60008190508160005260206000209050919050565b60006020601f8301049050919050565b600082821b905092915050565b6000600883026131f57fffffffffffffffffffffffffffffffffffffffffffffffffffffffffffffffff826131b8565b6131ff86836131b8565b95508019841693508086168417925050509392505050565b6000819050919050565b600061323c613237613232846124bc565b613217565b6124bc565b9050919050565b6000819050919050565b61325683613221565b61326a61326282613243565b8484546131c5565b825550505050565b600090565b61327f613272565b61328a81848461324d565b505050565b5b818110156132ae576132a3600082613277565b600181019050613290565b5050565b601f8211156132f3576132c481613193565b6132cd846131a8565b810160208510156132dc578190505b6132f06132e8856131a8565b83018261328f565b50505b505050565b600082821c905092915050565b6000613316600019846008026132f8565b1980831691505092915050565b600061332f8383613305565b9150826002028217905092915050565b6133488261240a565b67ffffffffffffffff811115613361576133606125f1565b5b61336b8254612cd8565b6133768282856132b2565b600060209050601f8311600181146133a95760008415613397578287015190505b6133a18582613323565b865550613409565b601f1984166133b786613193565b60005b828110156133df578489015182556001820191506020850194506020810190506133ba565b868310156133fc57848901516133f8601f891682613305565b8355505b6001600288020188555050505b505050505050565b60006060820190506134266000830186612778565b81810360208301526134388185612461565b90506134476040830184612551565b949350505050565b7f4f776e61626c653a206e6577206f776e657220697320746865207a65726f206160008201527f6464726573730000000000000000000000000000000000000000000000000000602082015250565b60006134ab602683612415565b91506134b68261344f565b604082019050919050565b600060208201905081810360008301526134da8161349e565b9050919050565b7f45524337323155524953746f726167653a2055524920736574206f66206e6f6e60008201527f6578697374656e7420746f6b656e000000000000000000000000000000000000602082015250565b600061353d602e83612415565b9150613548826134e1565b604082019050919050565b6000602082019050818103600083015261356c81613530565b9050919050565b7f4552433732313a207472616e736665722066726f6d20696e636f72726563742060008201527f6f776e6572000000000000000000000000000000000000000000000000000000602082015250565b60006135cf602583612415565b91506135da82613573565b604082019050919050565b600060208201905081810360008301526135fe816135c2565b9050919050565b7f4552433732313a207472616e7366657220746f20746865207a65726f2061646460008201527f7265737300000000000000000000000000000000000000000000000000000000602082015250565b6000613661602483612415565b915061366c82613605565b604082019050919050565b6000602082019050818103600083015261369081613654565b9050919050565b7f4f776e61626c653a2063616c6c6572206973206e6f7420746865206f776e6572600082015250565b60006136cd602083612415565b91506136d882613697565b602082019050919050565b600060208201905081810360008301526136fc816136c0565b9050919050565b7f4552433732313a20617070726f766520746f2063616c6c657200000000000000600082015250565b6000613739601983612415565b915061374482613703565b602082019050919050565b600060208201905081810360008301526137688161372c565b9050919050565b7f4552433732313a207472616e7366657220746f206e6f6e20455243373231526560008201527f63656976657220696d706c656d656e7465720000000000000000000000000000602082015250565b60006137cb603283612415565b91506137d68261376f565b604082019050919050565b600060208201905081810360008301526137fa816137be565b9050919050565b600081905092915050565b60006138178261240a565b6138218185613801565b9350613831818560208601612426565b80840191505092915050565b6000613849828561380c565b9150613855828461380c565b91508190509392505050565b600081519050919050565b600082825260208201905092915050565b600061388882613861565b613892818561386c565b93506138a2818560208601612426565b6138ab81612450565b840191505092915050565b60006080820190506138cb6000830187612551565b6138d86020830186612551565b6138e56040830185612778565b81810360608301526138f7818461387d565b905095945050505050565b6000815190506139118161237b565b92915050565b60006020828403121561392d5761392c612345565b5b600061393b84828501613902565b91505092915050565b7f4552433732313a206d696e7420746f20746865207a65726f2061646472657373600082015250565b600061397a602083612415565b915061398582613944565b602082019050919050565b600060208201905081810360008301526139a98161396d565b9050919050565b7f4552433732313a20746f6b656e20616c7265616479206d696e74656400000000600082015250565b60006139e6601c83612415565b91506139f1826139b0565b602082019050919050565b60006020820190508181036000830152613a15816139d9565b9050919050565b7f4e487b7100000000000000000000000000000000000000000000000000000000600052601260045260246000fdfea26469706673582212205303ae96ab7db45775e4658f9d27b03ac632b99d891d87d70da2636eb49864b364736f6c63430008140033",
  "linkReferences": {},
  "deployedLinkReferences": {}
}