{
  "_format": "hh-sol-artifact-1",
  "contractName": "ValuationEscrow",
  "sourceName": "src/contracts/ValuationEscrow.sol",
  "abi": [
    {
      "inputs": [],
      "stateMutability": "nonpayable",
      "type": "constructor"
    },
    {
      "anonymous": false,
      "inputs": [
        {
          "indexed": true,
          "internalType": "uint256",
          "name": "requestId",
          "type": "uint256"
        },
        {
          "indexed": true,
          "internalType": "address",
          "name": "initiator",
          "type": "address"
        },
        {
          "indexed": false,
          "internalType": "string",
          "name": "reason",
          "type": "string"
        }
      ],
      "name": "DisputeRaised",
      "type": "event"
    },
    {
      "anonymous": false,
      "inputs": [
        {
          "indexed": true,
          "internalType": "uint256",
          "name": "requestId",
          "type": "uint256"
        },
        {
          "indexed": true,
          "internalType": "address",
          "name": "valuator",
          "type": "address"
        }
      ],
      "name": "EscrowAccepted",
      "type": "event"
    },
    {
      "anonymous": false,
      "inputs": [
        {
          "indexed": true,
          "internalType": "uint256",
          "name": "requestId",
          "type": "uint256"
        },
        {
          "indexed": false,
          "internalType": "string",
          "name": "reason",
          "type": "string"
        }
      ],
      "name": "EscrowCancelled",
      "type": "event"
    },
    {
      "anonymous": false,
      "inputs": [
        {
          "indexed": true,
          "internalType": "uint256",
          "name": "requestId",
          "type": "uint256"
        },
        {
          "indexed": false,
          "internalType": "uint256",
          "name": "valuatorAmount",
          "type": "uint256"
        },
        {
          "indexed": false,
          "internalType": "uint256",
          "name": "platformFee",
          "type": "uint256"
        }
      ],
      "name": "EscrowCompleted",
      "type": "event"
    },
    {
      "anonymous": false,
      "inputs": [
        {
          "indexed": true,
          "internalType": "uint256",
          "name": "requestId",
          "type": "uint256"
        },
        {
          "indexed": true,
          "internalType": "address",
          "name": "client",
          "type": "address"
        },
        {
          "indexed": false,
          "internalType": "uint256",
          "name": "amount",
          "type": "uint256"
        },
        {
          "indexed": false,
          "internalType": "bool",
          "name": "isUrgent",
          "type": "bool"
        }
      ],
      "name": "EscrowCreated",
      "type": "event"
    },
    {
      "anonymous": false,
      "inputs": [
        {
          "indexed": true,
          "internalType": "bytes32",
          "name": "role",
          "type": "bytes32"
        },
        {
          "indexed": true,
          "internalType": "bytes32",
          "name": "previousAdminRole",
          "type": "bytes32"
        },
        {
          "indexed": true,
          "internalType": "bytes32",
          "name": "newAdminRole",
          "type": "bytes32"
        }
      ],
      "name": "RoleAdminChanged",
      "type": "event"
    },
    {
      "anonymous": false,
      "inputs": [
        {
          "indexed": true,
          "internalType": "bytes32",
          "name": "role",
          "type": "bytes32"
        },
        {
          "indexed": true,
          "internalType": "address",
          "name": "account",
          "type": "address"
        },
        {
          "indexed": true,
          "internalType": "address",
          "name": "sender",
          "type": "address"
        }
      ],
      "name": "RoleGranted",
      "type": "event"
    },
    {
      "anonymous": false,
      "inputs": [
        {
          "indexed": true,
          "internalType": "bytes32",
          "name": "role",
          "type": "bytes32"
        },
        {
          "indexed": true,
          "internalType": "address",
          "name": "account",
          "type": "address"
        },
        {
          "indexed": true,
          "internalType": "address",
          "name": "sender",
          "type": "address"
        }
      ],
      "name": "RoleRevoked",
      "type": "event"
    },
    {
      "inputs": [],
      "name": "CANCELLATION_WINDOW",
      "outputs": [
        {
          "internalType": "uint256",
          "name": "",
          "type": "uint256"
        }
      ],
      "stateMutability": "view",
      "type": "function"
    },
    {
      "inputs": [],
      "name": "DEFAULT_ADMIN_ROLE",
      "outputs": [
        {
          "internalType": "bytes32",
          "name": "",
          "type": "bytes32"
        }
      ],
      "stateMutability": "view",
      "type": "function"
    },
    {
      "inputs": [],
      "name": "PLATFORM_FEE",
      "outputs": [
        {
          "internalType": "uint256",
          "name": "",
          "type": "uint256"
        }
      ],
      "stateMutability": "view",
      "type": "function"
    },
    {
      "inputs": [],
      "name": "PLATFORM_ROLE",
      "outputs": [
        {
          "internalType": "bytes32",
          "name": "",
          "type": "bytes32"
        }
      ],
      "stateMutability": "view",
      "type": "function"
    },
    {
      "inputs": [
        {
          "internalType": "uint256",
          "name": "requestId",
          "type": "uint256"
        }
      ],
      "name": "acceptEscrow",
      "outputs": [],
      "stateMutability": "nonpayable",
      "type": "function"
    },
    {
      "inputs": [
        {
          "internalType": "uint256",
          "name": "requestId",
          "type": "uint256"
        },
        {
          "internalType": "string",
          "name": "reason",
          "type": "string"
        }
      ],
      "name": "cancelEscrow",
      "outputs": [],
      "stateMutability": "nonpayable",
      "type": "function"
    },
    {
      "inputs": [
        {
          "internalType": "uint256",
          "name": "requestId",
          "type": "uint256"
        }
      ],
      "name": "completeValuation",
      "outputs": [],
      "stateMutability": "nonpayable",
      "type": "function"
    },
    {
      "inputs": [
        {
          "internalType": "uint256",
          "name": "requestId",
          "type": "uint256"
        },
        {
          "internalType": "address",
          "name": "valuator",
          "type": "address"
        },
        {
          "internalType": "bool",
          "name": "isUrgent",
          "type": "bool"
        }
      ],
      "name": "createEscrow",
      "outputs": [],
      "stateMutability": "payable",
      "type": "function"
    },
    {
      "inputs": [
        {
          "internalType": "uint256",
          "name": "",
          "type": "uint256"
        }
      ],
      "name": "escrows",
      "outputs": [
        {
          "internalType": "address",
          "name": "client",
          "type": "address"
        },
        {
          "internalType": "address",
          "name": "valuator",
          "type": "address"
        },
        {
          "internalType": "uint256",
          "name": "amount",
          "type": "uint256"
        },
        {
          "internalType": "uint256",
          "name": "createdAt",
          "type": "uint256"
        },
        {
          "internalType": "uint256",
          "name": "completedAt",
          "type": "uint256"
        },
        {
          "internalType": "bool",
          "name": "isUrgent",
          "type": "bool"
        },
        {
          "internalType": "enum ValuationEscrow.EscrowStatus",
          "name": "status",
          "type": "uint8"
        }
      ],
      "stateMutability": "view",
      "type": "function"
    },
    {
      "inputs": [
        {
          "internalType": "bytes32",
          "name": "role",
          "type": "bytes32"
        }
      ],
      "name": "getRoleAdmin",
      "outputs": [
        {
          "internalType": "bytes32",
          "name": "",
          "type": "bytes32"
        }
      ],
      "stateMutability": "view",
      "type": "function"
    },
    {
      "inputs": [
        {
          "internalType": "bytes32",
          "name": "role",
          "type": "bytes32"
        },
        {
          "internalType": "address",
          "name": "account",
          "type": "address"
        }
      ],
      "name": "grantRole",
      "outputs": [],
      "stateMutability": "nonpayable",
      "type": "function"
    },
    {
      "inputs": [
        {
          "internalType": "bytes32",
          "name": "role",
          "type": "bytes32"
        },
        {
          "internalType": "address",
          "name": "account",
          "type": "address"
        }
      ],
      "name": "hasRole",
      "outputs": [
        {
          "internalType": "bool",
          "name": "",
          "type": "bool"
        }
      ],
      "stateMutability": "view",
      "type": "function"
    },
    {
      "inputs": [
        {
          "internalType": "address",
          "name": "",
          "type": "address"
        }
      ],
      "name": "platformBalance",
      "outputs": [
        {
          "internalType": "uint256",
          "name": "",
          "type": "uint256"
        }
      ],
      "stateMutability": "view",
      "type": "function"
    },
    {
      "inputs": [
        {
          "internalType": "uint256",
          "name": "requestId",
          "type": "uint256"
        },
        {
          "internalType": "string",
          "name": "reason",
          "type": "string"
        }
      ],
      "name": "raiseDispute",
      "outputs": [],
      "stateMutability": "nonpayable",
      "type": "function"
    },
    {
      "inputs": [
        {
          "internalType": "bytes32",
          "name": "role",
          "type": "bytes32"
        },
        {
          "internalType": "address",
          "name": "account",
          "type": "address"
        }
      ],
      "name": "renounceRole",
      "outputs": [],
      "stateMutability": "nonpayable",
      "type": "function"
    },
    {
      "inputs": [
        {
          "internalType": "uint256",
          "name": "requestId",
          "type": "uint256"
        },
        {
          "internalType": "uint256",
          "name": "clientRefund",
          "type": "uint256"
        },
        {
          "internalType": "uint256",
          "name": "valuatorPayment",
          "type": "uint256"
        }
      ],
      "name": "resolveDispute",
      "outputs": [],
      "stateMutability": "nonpayable",
      "type": "function"
    },
    {
      "inputs": [
        {
          "internalType": "bytes32",
          "name": "role",
          "type": "bytes32"
        },
        {
          "internalType": "address",
          "name": "account",
          "type": "address"
        }
      ],
      "name": "revokeRole",
      "outputs": [],
      "stateMutability": "nonpayable",
      "type": "function"
    },
    {
      "inputs": [
        {
          "internalType": "bytes4",
          "name": "interfaceId",
          "type": "bytes4"
        }
      ],
      "name": "supportsInterface",
      "outputs": [
        {
          "internalType": "bool",
          "name": "",
          "type": "bool"
        }
      ],
      "stateMutability": "view",
      "type": "function"
    },
    {
      "inputs": [
        {
          "internalType": "address",
          "name": "",
          "type": "address"
        }
      ],
      "name": "valuatorBalances",
      "outputs": [
        {
          "internalType": "uint256",
          "name": "",
          "type": "uint256"
        }
      ],
      "stateMutability": "view",
      "type": "function"
    },
    {
      "inputs": [],
      "name": "withdrawBalance",
      "outputs": [],
      "stateMutability": "nonpayable",
      "type": "function"
    },
    {
      "inputs": [],
      "name": "withdrawPlatformFees",
      "outputs": [],
      "stateMutability": "nonpayable",
      "type": "function"
    },
    {
      "stateMutability": "payable",
      "type": "receive"
    }
  ],
  "bytecode": "0x60806040523480156200001157600080fd5b50600180819055506200002e6000801b336200006660201b60201c565b620000607f797343f8d6a29aafeb3aaf0910a8973e0081c60c2f6c1f775cd9f76ea348fc1e336200006660201b60201c565b620001df565b6200007882826200007c60201b60201c565b5050565b6200008e82826200016d60201b60201c565b6200016957600160008084815260200190815260200160002060000160008373ffffffffffffffffffffffffffffffffffffffff1673ffffffffffffffffffffffffffffffffffffffff16815260200190815260200160002060006101000a81548160ff0219169083151502179055506200010e620001d760201b60201c565b73ffffffffffffffffffffffffffffffffffffffff168173ffffffffffffffffffffffffffffffffffffffff16837f2f8788117e7eff1d82e926ec794901d17c78024a50270940304540a733656f0d60405160405180910390a45b5050565b600080600084815260200190815260200160002060000160008373ffffffffffffffffffffffffffffffffffffffff1673ffffffffffffffffffffffffffffffffffffffff16815260200190815260200160002060009054906101000a900460ff16905092915050565b600033905090565b612fc980620001ef6000396000f3fe60806040526004361061012e5760003560e01c80635fd8c710116100ab578063a217fddf1161006f578063a217fddf146103f2578063c67e32e91461041d578063d0b7830b1461045a578063d2af2bcb14610471578063d547741f1461049a578063ee28ea62146104c357610135565b80635fd8c7101461030b57806370824c5c1461032257806377cb3c7d1461034d57806391d148541461038a57806392a57fca146103c757610135565b806336568abe116100f257806336568abe1461024b5780633fabe74f1461027457806341dce6131461029d578063520507f0146102b95780635aef573c146102e257610135565b8063012f52ee1461013a57806301ffc9a71461017d578063248a9ca3146101ba5780632f2ff15d146101f757806334fbc9a11461022057610135565b3661013557005b600080fd5b34801561014657600080fd5b50610161600480360381019061015c9190611f48565b6104ec565b6040516101749796959493929190612057565b60405180910390f35b34801561018957600080fd5b506101a4600480360381019061019f919061211e565b610588565b6040516101b1919061214b565b60405180910390f35b3480156101c657600080fd5b506101e160048036038101906101dc919061219c565b610602565b6040516101ee91906121d8565b60405180910390f35b34801561020357600080fd5b5061021e6004803603810190610219919061221f565b610621565b005b34801561022c57600080fd5b50610235610642565b604051610242919061225f565b60405180910390f35b34801561025757600080fd5b50610272600480360381019061026d919061221f565b610648565b005b34801561028057600080fd5b5061029b6004803603810190610296919061227a565b6106cb565b005b6102b760048036038101906102b291906122f9565b6109c9565b005b3480156102c557600080fd5b506102e060048036038101906102db9190611f48565b610c8e565b005b3480156102ee57600080fd5b5061030960048036038101906103049190612492565b610f03565b005b34801561031757600080fd5b5061032061113f565b005b34801561032e57600080fd5b50610337611265565b60405161034491906121d8565b60405180910390f35b34801561035957600080fd5b50610374600480360381019061036f91906124ee565b611289565b604051610381919061225f565b60405180910390f35b34801561039657600080fd5b506103b160048036038101906103ac919061221f565b6112a1565b6040516103be919061214b565b60405180910390f35b3480156103d357600080fd5b506103dc61130b565b6040516103e9919061225f565b60405180910390f35b3480156103fe57600080fd5b50610407611312565b60405161041491906121d8565b60405180910390f35b34801561042957600080fd5b50610444600480360381019061043f91906124ee565b611319565b604051610451919061225f565b60405180910390f35b34801561046657600080fd5b5061046f611331565b005b34801561047d57600080fd5b5061049860048036038101906104939190612492565b6114c0565b005b3480156104a657600080fd5b506104c160048036038101906104bc919061221f565b6117ba565b005b3480156104cf57600080fd5b506104ea60048036038101906104e59190611f48565b6117db565b005b60026020528060005260406000206000915090508060000160009054906101000a900473ffffffffffffffffffffffffffffffffffffffff16908060010160009054906101000a900473ffffffffffffffffffffffffffffffffffffffff16908060020154908060030154908060040154908060050160009054906101000a900460ff16908060050160019054906101000a900460ff16905087565b60007f7965db0b000000000000000000000000000000000000000000000000000000007bffffffffffffffffffffffffffffffffffffffffffffffffffffffff1916827bffffffffffffffffffffffffffffffffffffffffffffffffffffffff191614806105fb57506105fa82611971565b5b9050919050565b6000806000838152602001908152602001600020600101549050919050565b61062a82610602565b610633816119db565b61063d83836119ef565b505050565b6103e881565b610650611acf565b73ffffffffffffffffffffffffffffffffffffffff168173ffffffffffffffffffffffffffffffffffffffff16146106bd576040517f08c379a00000000000000000000000000000000000000000000000000000000081526004016106b49061259e565b60405180910390fd5b6106c78282611ad7565b5050565b6106f57f797343f8d6a29aafeb3aaf0910a8973e0081c60c2f6c1f775cd9f76ea348fc1e336112a1565b610734576040517f08c379a000000000000000000000000000000000000000000000000000000000815260040161072b9061260a565b60405180910390fd5b600060026000858152602001908152602001600020905060048081111561075e5761075d611fe0565b5b8160050160019054906101000a900460ff16600481111561078257610781611fe0565b5b146107c2576040517f08c379a00000000000000000000000000000000000000000000000000000000081526004016107b990612676565b60405180910390fd5b806002015482846107d391906126c5565b1115610814576040517f08c379a000000000000000000000000000000000000000000000000000000000815260040161080b90612745565b60405180910390fd5b6000831115610889578060000160009054906101000a900473ffffffffffffffffffffffffffffffffffffffff1673ffffffffffffffffffffffffffffffffffffffff166108fc849081150290604051600060405180830381858888f19350505050158015610887573d6000803e3d6000fd5b505b600082111561090d5781600360008360010160009054906101000a900473ffffffffffffffffffffffffffffffffffffffff1673ffffffffffffffffffffffffffffffffffffffff1673ffffffffffffffffffffffffffffffffffffffff168152602001908152602001600020600082825461090591906126c5565b925050819055505b6000828483600201546109209190612765565b61092a9190612765565b9050600081111561098c5780600460003073ffffffffffffffffffffffffffffffffffffffff1673ffffffffffffffffffffffffffffffffffffffff168152602001908152602001600020600082825461098491906126c5565b925050819055505b60028260050160016101000a81548160ff021916908360048111156109b4576109b3611fe0565b5b02179055504282600401819055505050505050565b60003411610a0c576040517f08c379a0000000000000000000000000000000000000000000000000000000008152600401610a03906127e5565b60405180910390fd5b600073ffffffffffffffffffffffffffffffffffffffff166002600085815260200190815260200160002060000160009054906101000a900473ffffffffffffffffffffffffffffffffffffffff1673ffffffffffffffffffffffffffffffffffffffff1614610ab1576040517f08c379a0000000000000000000000000000000000000000000000000000000008152600401610aa890612851565b60405180910390fd5b6040518060e001604052803373ffffffffffffffffffffffffffffffffffffffff1681526020018373ffffffffffffffffffffffffffffffffffffffff16815260200134815260200142815260200160008152602001821515815260200160006004811115610b2357610b22611fe0565b5b8152506002600085815260200190815260200160002060008201518160000160006101000a81548173ffffffffffffffffffffffffffffffffffffffff021916908373ffffffffffffffffffffffffffffffffffffffff16021790555060208201518160010160006101000a81548173ffffffffffffffffffffffffffffffffffffffff021916908373ffffffffffffffffffffffffffffffffffffffff16021790555060408201518160020155606082015181600301556080820151816004015560a08201518160050160006101000a81548160ff02191690831515021790555060c08201518160050160016101000a81548160ff02191690836004811115610c3057610c2f611fe0565b5b02179055509050503373ffffffffffffffffffffffffffffffffffffffff16837f854ee9e1776b3f95643e6d59f164fb67ee3a8b2dcdba2c9e17eaf8008125c0853484604051610c81929190612871565b60405180910390a3505050565b610cb87f797343f8d6a29aafeb3aaf0910a8973e0081c60c2f6c1f775cd9f76ea348fc1e336112a1565b610cf7576040517f08c379a0000000000000000000000000000000000000000000000000000000008152600401610cee9061260a565b60405180910390fd5b600060026000838152602001908152602001600020905060016004811115610d2257610d21611fe0565b5b8160050160019054906101000a900460ff166004811115610d4657610d45611fe0565b5b14610d86576040517f08c379a0000000000000000000000000000000000000000000000000000000008152600401610d7d906128e6565b60405180910390fd5b60006127106103e88360020154610d9d9190612906565b610da79190612977565b90506000818360020154610dbb9190612765565b905060028360050160016101000a81548160ff02191690836004811115610de557610de4611fe0565b5b021790555042836004018190555080600360008560010160009054906101000a900473ffffffffffffffffffffffffffffffffffffffff1673ffffffffffffffffffffffffffffffffffffffff1673ffffffffffffffffffffffffffffffffffffffff1681526020019081526020016000206000828254610e6691906126c5565b9250508190555081600460003073ffffffffffffffffffffffffffffffffffffffff1673ffffffffffffffffffffffffffffffffffffffff1681526020019081526020016000206000828254610ebc91906126c5565b92505081905550837f7db53ed4c9f6c2d35b2cc434b746d9b5d69c4f23389323588cb6ccdda0d831328284604051610ef59291906129a8565b60405180910390a250505050565b60006002600084815260200190815260200160002090508060000160009054906101000a900473ffffffffffffffffffffffffffffffffffffffff1673ffffffffffffffffffffffffffffffffffffffff163373ffffffffffffffffffffffffffffffffffffffff161480610fc757508060010160009054906101000a900473ffffffffffffffffffffffffffffffffffffffff1673ffffffffffffffffffffffffffffffffffffffff163373ffffffffffffffffffffffffffffffffffffffff16145b611006576040517f08c379a0000000000000000000000000000000000000000000000000000000008152600401610ffd90612a1d565b60405180910390fd5b6001600481111561101a57611019611fe0565b5b8160050160019054906101000a900460ff16600481111561103e5761103d611fe0565b5b148061107f57506002600481111561105957611058611fe0565b5b8160050160019054906101000a900460ff16600481111561107d5761107c611fe0565b5b145b6110be576040517f08c379a00000000000000000000000000000000000000000000000000000000081526004016110b590612a89565b60405180910390fd5b60048160050160016101000a81548160ff021916908360048111156110e6576110e5611fe0565b5b02179055503373ffffffffffffffffffffffffffffffffffffffff16837f1b84372106d77c6daea0dda35bbc0229d10a83f58ec899092884925193682341846040516111329190612b17565b60405180910390a3505050565b611147611bb8565b6000600360003373ffffffffffffffffffffffffffffffffffffffff1673ffffffffffffffffffffffffffffffffffffffff168152602001908152602001600020549050600081116111ce576040517f08c379a00000000000000000000000000000000000000000000000000000000081526004016111c590612b85565b60405180910390fd5b6000600360003373ffffffffffffffffffffffffffffffffffffffff1673ffffffffffffffffffffffffffffffffffffffff168152602001908152602001600020819055503373ffffffffffffffffffffffffffffffffffffffff166108fc829081150290604051600060405180830381858888f19350505050158015611259573d6000803e3d6000fd5b5050611263611c07565b565b7f797343f8d6a29aafeb3aaf0910a8973e0081c60c2f6c1f775cd9f76ea348fc1e81565b60036020528060005260406000206000915090505481565b600080600084815260200190815260200160002060000160008373ffffffffffffffffffffffffffffffffffffffff1673ffffffffffffffffffffffffffffffffffffffff16815260200190815260200160002060009054906101000a900460ff16905092915050565b6201518081565b6000801b81565b60046020528060005260406000206000915090505481565b611339611bb8565b6113637f797343f8d6a29aafeb3aaf0910a8973e0081c60c2f6c1f775cd9f76ea348fc1e336112a1565b6113a2576040517f08c379a00000000000000000000000000000000000000000000000000000000081526004016113999061260a565b60405180910390fd5b6000600460003073ffffffffffffffffffffffffffffffffffffffff1673ffffffffffffffffffffffffffffffffffffffff16815260200190815260200160002054905060008111611429576040517f08c379a000000000000000000000000000000000000000000000000000000000815260040161142090612bf1565b60405180910390fd5b6000600460003073ffffffffffffffffffffffffffffffffffffffff1673ffffffffffffffffffffffffffffffffffffffff168152602001908152602001600020819055503373ffffffffffffffffffffffffffffffffffffffff166108fc829081150290604051600060405180830381858888f193505050501580156114b4573d6000803e3d6000fd5b50506114be611c07565b565b60006002600084815260200190815260200160002090508060000160009054906101000a900473ffffffffffffffffffffffffffffffffffffffff1673ffffffffffffffffffffffffffffffffffffffff163373ffffffffffffffffffffffffffffffffffffffff16148061158457508060010160009054906101000a900473ffffffffffffffffffffffffffffffffffffffff1673ffffffffffffffffffffffffffffffffffffffff163373ffffffffffffffffffffffffffffffffffffffff16145b806115b557506115b47f797343f8d6a29aafeb3aaf0910a8973e0081c60c2f6c1f775cd9f76ea348fc1e336112a1565b5b6115f4576040517f08c379a00000000000000000000000000000000000000000000000000000000081526004016115eb90612c5d565b60405180910390fd5b8060000160009054906101000a900473ffffffffffffffffffffffffffffffffffffffff1673ffffffffffffffffffffffffffffffffffffffff163373ffffffffffffffffffffffffffffffffffffffff16036116e1576000600481111561165f5761165e611fe0565b5b8160050160019054906101000a900460ff16600481111561168357611682611fe0565b5b14806116a1575062015180816003015461169d91906126c5565b4211155b6116e0576040517f08c379a00000000000000000000000000000000000000000000000000000000081526004016116d790612cc9565b60405180910390fd5b5b60038160050160016101000a81548160ff0219169083600481111561170957611708611fe0565b5b02179055508060000160009054906101000a900473ffffffffffffffffffffffffffffffffffffffff1673ffffffffffffffffffffffffffffffffffffffff166108fc82600201549081150290604051600060405180830381858888f1935050505015801561177c573d6000803e3d6000fd5b50827fdf5af23a8bfbd700e381c19607d03504d7a5ba1876c669cccd37feace1f5adaa836040516117ad9190612b17565b60405180910390a2505050565b6117c382610602565b6117cc816119db565b6117d68383611ad7565b505050565b60006002600083815260200190815260200160002090503373ffffffffffffffffffffffffffffffffffffffff168160010160009054906101000a900473ffffffffffffffffffffffffffffffffffffffff1673ffffffffffffffffffffffffffffffffffffffff1614611884576040517f08c379a000000000000000000000000000000000000000000000000000000000815260040161187b90612d35565b60405180910390fd5b6000600481111561189857611897611fe0565b5b8160050160019054906101000a900460ff1660048111156118bc576118bb611fe0565b5b146118fc576040517f08c379a00000000000000000000000000000000000000000000000000000000081526004016118f3906128e6565b60405180910390fd5b60018160050160016101000a81548160ff0219169083600481111561192457611923611fe0565b5b02179055503373ffffffffffffffffffffffffffffffffffffffff16827f2aaf7ce1949df9ffc5cfe61975cc253ee5ed1ab5a91470f722c539aa2f67a67960405160405180910390a35050565b60007f01ffc9a7000000000000000000000000000000000000000000000000000000007bffffffffffffffffffffffffffffffffffffffffffffffffffffffff1916827bffffffffffffffffffffffffffffffffffffffffffffffffffffffff1916149050919050565b6119ec816119e7611acf565b611c10565b50565b6119f982826112a1565b611acb57600160008084815260200190815260200160002060000160008373ffffffffffffffffffffffffffffffffffffffff1673ffffffffffffffffffffffffffffffffffffffff16815260200190815260200160002060006101000a81548160ff021916908315150217905550611a70611acf565b73ffffffffffffffffffffffffffffffffffffffff168173ffffffffffffffffffffffffffffffffffffffff16837f2f8788117e7eff1d82e926ec794901d17c78024a50270940304540a733656f0d60405160405180910390a45b5050565b600033905090565b611ae182826112a1565b15611bb457600080600084815260200190815260200160002060000160008373ffffffffffffffffffffffffffffffffffffffff1673ffffffffffffffffffffffffffffffffffffffff16815260200190815260200160002060006101000a81548160ff021916908315150217905550611b59611acf565b73ffffffffffffffffffffffffffffffffffffffff168173ffffffffffffffffffffffffffffffffffffffff16837ff6391f5c32d9c69d2a47ea670b442974b53935d1edc7fd64eb21e047a839171b60405160405180910390a45b5050565b600260015403611bfd576040517f08c379a0000000000000000000000000000000000000000000000000000000008152600401611bf490612da1565b60405180910390fd5b6002600181905550565b60018081905550565b611c1a82826112a1565b611c9157611c2781611c95565b611c358360001c6020611cc2565b604051602001611c46929190612e95565b6040516020818303038152906040526040517f08c379a0000000000000000000000000000000000000000000000000000000008152600401611c889190612b17565b60405180910390fd5b5050565b6060611cbb8273ffffffffffffffffffffffffffffffffffffffff16601460ff16611cc2565b9050919050565b606060006002836002611cd59190612906565b611cdf91906126c5565b67ffffffffffffffff811115611cf857611cf7612367565b5b6040519080825280601f01601f191660200182016040528015611d2a5781602001600182028036833780820191505090505b5090507f300000000000000000000000000000000000000000000000000000000000000081600081518110611d6257611d61612ecf565b5b60200101907effffffffffffffffffffffffffffffffffffffffffffffffffffffffffffff1916908160001a9053507f780000000000000000000000000000000000000000000000000000000000000081600181518110611dc657611dc5612ecf565b5b60200101907effffffffffffffffffffffffffffffffffffffffffffffffffffffffffffff1916908160001a90535060006001846002611e069190612906565b611e1091906126c5565b90505b6001811115611eb0577f3031323334353637383961626364656600000000000000000000000000000000600f861660108110611e5257611e51612ecf565b5b1a60f81b828281518110611e6957611e68612ecf565b5b60200101907effffffffffffffffffffffffffffffffffffffffffffffffffffffffffffff1916908160001a905350600485901c945080611ea990612efe565b9050611e13565b5060008414611ef4576040517f08c379a0000000000000000000000000000000000000000000000000000000008152600401611eeb90612f73565b60405180910390fd5b8091505092915050565b6000604051905090565b600080fd5b600080fd5b6000819050919050565b611f2581611f12565b8114611f3057600080fd5b50565b600081359050611f4281611f1c565b92915050565b600060208284031215611f5e57611f5d611f08565b5b6000611f6c84828501611f33565b91505092915050565b600073ffffffffffffffffffffffffffffffffffffffff82169050919050565b6000611fa082611f75565b9050919050565b611fb081611f95565b82525050565b611fbf81611f12565b82525050565b60008115159050919050565b611fda81611fc5565b82525050565b7f4e487b7100000000000000000000000000000000000000000000000000000000600052602160045260246000fd5b600581106120205761201f611fe0565b5b50565b60008190506120318261200f565b919050565b600061204182612023565b9050919050565b61205181612036565b82525050565b600060e08201905061206c600083018a611fa7565b6120796020830189611fa7565b6120866040830188611fb6565b6120936060830187611fb6565b6120a06080830186611fb6565b6120ad60a0830185611fd1565b6120ba60c0830184612048565b98975050505050505050565b60007fffffffff0000000000000000000000000000000000000000000000000000000082169050919050565b6120fb816120c6565b811461210657600080fd5b50565b600081359050612118816120f2565b92915050565b60006020828403121561213457612133611f08565b5b600061214284828501612109565b91505092915050565b60006020820190506121606000830184611fd1565b92915050565b6000819050919050565b61217981612166565b811461218457600080fd5b50565b60008135905061219681612170565b92915050565b6000602082840312156121b2576121b1611f08565b5b60006121c084828501612187565b91505092915050565b6121d281612166565b82525050565b60006020820190506121ed60008301846121c9565b92915050565b6121fc81611f95565b811461220757600080fd5b50565b600081359050612219816121f3565b92915050565b6000806040838503121561223657612235611f08565b5b600061224485828601612187565b92505060206122558582860161220a565b9150509250929050565b60006020820190506122746000830184611fb6565b92915050565b60008060006060848603121561229357612292611f08565b5b60006122a186828701611f33565b93505060206122b286828701611f33565b92505060406122c386828701611f33565b9150509250925092565b6122d681611fc5565b81146122e157600080fd5b50565b6000813590506122f3816122cd565b92915050565b60008060006060848603121561231257612311611f08565b5b600061232086828701611f33565b93505060206123318682870161220a565b9250506040612342868287016122e4565b9150509250925092565b600080fd5b600080fd5b6000601f19601f8301169050919050565b7f4e487b7100000000000000000000000000000000000000000000000000000000600052604160045260246000fd5b61239f82612356565b810181811067ffffffffffffffff821117156123be576123bd612367565b5b80604052505050565b60006123d1611efe565b90506123dd8282612396565b919050565b600067ffffffffffffffff8211156123fd576123fc612367565b5b61240682612356565b9050602081019050919050565b82818337600083830152505050565b6000612435612430846123e2565b6123c7565b90508281526020810184848401111561245157612450612351565b5b61245c848285612413565b509392505050565b600082601f8301126124795761247861234c565b5b8135612489848260208601612422565b91505092915050565b600080604083850312156124a9576124a8611f08565b5b60006124b785828601611f33565b925050602083013567ffffffffffffffff8111156124d8576124d7611f0d565b5b6124e485828601612464565b9150509250929050565b60006020828403121561250457612503611f08565b5b60006125128482850161220a565b91505092915050565b600082825260208201905092915050565b7f416363657373436f6e74726f6c3a2063616e206f6e6c792072656e6f756e636560008201527f20726f6c657320666f722073656c660000000000000000000000000000000000602082015250565b6000612588602f8361251b565b91506125938261252c565b604082019050919050565b600060208201905081810360008301526125b78161257b565b9050919050565b7f4e6f7420706c6174666f726d0000000000000000000000000000000000000000600082015250565b60006125f4600c8361251b565b91506125ff826125be565b602082019050919050565b60006020820190508181036000830152612623816125e7565b9050919050565b7f4e6f742064697370757465640000000000000000000000000000000000000000600082015250565b6000612660600c8361251b565b915061266b8261262a565b602082019050919050565b6000602082019050818103600083015261268f81612653565b9050919050565b7f4e487b7100000000000000000000000000000000000000000000000000000000600052601160045260246000fd5b60006126d082611f12565b91506126db83611f12565b92508282019050808211156126f3576126f2612696565b5b92915050565b7f496e76616c6964207061796d656e742073706c69740000000000000000000000600082015250565b600061272f60158361251b565b915061273a826126f9565b602082019050919050565b6000602082019050818103600083015261275e81612722565b9050919050565b600061277082611f12565b915061277b83611f12565b925082820390508181111561279357612792612696565b5b92915050565b7f5061796d656e7420726571756972656400000000000000000000000000000000600082015250565b60006127cf60108361251b565b91506127da82612799565b602082019050919050565b600060208201905081810360008301526127fe816127c2565b9050919050565b7f457363726f7720616c7265616479206578697374730000000000000000000000600082015250565b600061283b60158361251b565b915061284682612805565b602082019050919050565b6000602082019050818103600083015261286a8161282e565b9050919050565b60006040820190506128866000830185611fb6565b6128936020830184611fd1565b9392505050565b7f496e76616c696420737461747573000000000000000000000000000000000000600082015250565b60006128d0600e8361251b565b91506128db8261289a565b602082019050919050565b600060208201905081810360008301526128ff816128c3565b9050919050565b600061291182611f12565b915061291c83611f12565b925082820261292a81611f12565b9150828204841483151761294157612940612696565b5b5092915050565b7f4e487b7100000000000000000000000000000000000000000000000000000000600052601260045260246000fd5b600061298282611f12565b915061298d83611f12565b92508261299d5761299c612948565b5b828204905092915050565b60006040820190506129bd6000830185611fb6565b6129ca6020830184611fb6565b9392505050565b7f4e6f74206120706172747920746f20657363726f770000000000000000000000600082015250565b6000612a0760158361251b565b9150612a12826129d1565b602082019050919050565b60006020820190508181036000830152612a36816129fa565b9050919050565b7f496e76616c69642073746174757320666f722064697370757465000000000000600082015250565b6000612a73601a8361251b565b9150612a7e82612a3d565b602082019050919050565b60006020820190508181036000830152612aa281612a66565b9050919050565b600081519050919050565b60005b83811015612ad2578082015181840152602081019050612ab7565b60008484015250505050565b6000612ae982612aa9565b612af3818561251b565b9350612b03818560208601612ab4565b612b0c81612356565b840191505092915050565b60006020820190508181036000830152612b318184612ade565b905092915050565b7f4e6f2062616c616e636520746f20776974686472617700000000000000000000600082015250565b6000612b6f60168361251b565b9150612b7a82612b39565b602082019050919050565b60006020820190508181036000830152612b9e81612b62565b9050919050565b7f4e6f206665657320746f20776974686472617700000000000000000000000000600082015250565b6000612bdb60138361251b565b9150612be682612ba5565b602082019050919050565b60006020820190508181036000830152612c0a81612bce565b9050919050565b7f4e6f7420617574686f72697a6564000000000000000000000000000000000000600082015250565b6000612c47600e8361251b565b9150612c5282612c11565b602082019050919050565b60006020820190508181036000830152612c7681612c3a565b9050919050565b7f506173742063616e63656c6c6174696f6e2077696e646f770000000000000000600082015250565b6000612cb360188361251b565b9150612cbe82612c7d565b602082019050919050565b60006020820190508181036000830152612ce281612ca6565b9050919050565b7f4e6f742061737369676e65642076616c7561746f720000000000000000000000600082015250565b6000612d1f60158361251b565b9150612d2a82612ce9565b602082019050919050565b60006020820190508181036000830152612d4e81612d12565b9050919050565b7f5265656e7472616e637947756172643a207265656e7472616e742063616c6c00600082015250565b6000612d8b601f8361251b565b9150612d9682612d55565b602082019050919050565b60006020820190508181036000830152612dba81612d7e565b9050919050565b600081905092915050565b7f416363657373436f6e74726f6c3a206163636f756e7420000000000000000000600082015250565b6000612e02601783612dc1565b9150612e0d82612dcc565b601782019050919050565b6000612e2382612aa9565b612e2d8185612dc1565b9350612e3d818560208601612ab4565b80840191505092915050565b7f206973206d697373696e6720726f6c6520000000000000000000000000000000600082015250565b6000612e7f601183612dc1565b9150612e8a82612e49565b601182019050919050565b6000612ea082612df5565b9150612eac8285612e18565b9150612eb782612e72565b9150612ec38284612e18565b91508190509392505050565b7f4e487b7100000000000000000000000000000000000000000000000000000000600052603260045260246000fd5b6000612f0982611f12565b915060008203612f1c57612f1b612696565b5b600182039050919050565b7f537472696e67733a20686578206c656e67746820696e73756666696369656e74600082015250565b6000612f5d60208361251b565b9150612f6882612f27565b602082019050919050565b60006020820190508181036000830152612f8c81612f50565b905091905056fea2646970667358221220a5debc6ac8a998829ea96e0176f3506578aa1821c0e26b4bafe09acbd781446e64736f6c63430008140033",
  "linkReferences": {},
  "deployedLinkReferences": {}
}