{
  "_format": "hh-sol-artifact-1",
  "contractName": "GamificationContract",
  "sourceName": "src/contracts/GamificationContract.sol",
  "abi": [
    {
      "inputs": [],
      "stateMutability": "nonpayable",
      "type": "constructor"
    },
    {
      "anonymous": false,
      "inputs": [
        {
          "indexed": true,
          "internalType": "address",
          "name": "user",
          "type": "address"
        },
        {
          "indexed": false,
          "internalType": "string",
          "name": "achievementId",
          "type": "string"
        }
      ],
      "name": "AchievementUnlocked",
      "type": "event"
    },
    {
      "anonymous": false,
      "inputs": [
        {
          "indexed": true,
          "internalType": "address",
          "name": "previousOwner",
          "type": "address"
        },
        {
          "indexed": true,
          "internalType": "address",
          "name": "newOwner",
          "type": "address"
        }
      ],
      "name": "OwnershipTransferred",
      "type": "event"
    },
    {
      "anonymous": false,
      "inputs": [
        {
          "indexed": true,
          "internalType": "address",
          "name": "user",
          "type": "address"
        },
        {
          "indexed": false,
          "internalType": "string",
          "name": "action",
          "type": "string"
        },
        {
          "indexed": false,
          "internalType": "uint256",
          "name": "points",
          "type": "uint256"
        }
      ],
      "name": "PointsAwarded",
      "type": "event"
    },
    {
      "anonymous": false,
      "inputs": [
        {
          "indexed": true,
          "internalType": "address",
          "name": "user",
          "type": "address"
        }
      ],
      "name": "PropertyAdded",
      "type": "event"
    },
    {
      "anonymous": false,
      "inputs": [
        {
          "indexed": true,
          "internalType": "address",
          "name": "user",
          "type": "address"
        },
        {
          "indexed": false,
          "internalType": "uint256",
          "name": "accuracy",
          "type": "uint256"
        }
      ],
      "name": "ValuationGiven",
      "type": "event"
    },
    {
      "anonymous": false,
      "inputs": [
        {
          "indexed": true,
          "internalType": "address",
          "name": "user",
          "type": "address"
        }
      ],
      "name": "ValuationReceived",
      "type": "event"
    },
    {
      "inputs": [
        {
          "internalType": "address",
          "name": "user",
          "type": "address"
        }
      ],
      "name": "addProperty",
      "outputs": [],
      "stateMutability": "nonpayable",
      "type": "function"
    },
    {
      "inputs": [
        {
          "internalType": "address",
          "name": "user",
          "type": "address"
        },
        {
          "internalType": "string",
          "name": "action",
          "type": "string"
        },
        {
          "internalType": "uint256",
          "name": "points",
          "type": "uint256"
        }
      ],
      "name": "awardPoints",
      "outputs": [],
      "stateMutability": "nonpayable",
      "type": "function"
    },
    {
      "inputs": [
        {
          "internalType": "address",
          "name": "user",
          "type": "address"
        }
      ],
      "name": "getUserProfile",
      "outputs": [
        {
          "internalType": "uint256",
          "name": "totalPoints",
          "type": "uint256"
        },
        {
          "internalType": "uint256",
          "name": "propertyCount",
          "type": "uint256"
        },
        {
          "internalType": "uint256",
          "name": "valuationsReceived",
          "type": "uint256"
        },
        {
          "internalType": "uint256",
          "name": "valuationsGiven",
          "type": "uint256"
        },
        {
          "internalType": "uint256",
          "name": "accuracy",
          "type": "uint256"
        }
      ],
      "stateMutability": "view",
      "type": "function"
    },
    {
      "inputs": [
        {
          "internalType": "address",
          "name": "user",
          "type": "address"
        },
        {
          "internalType": "string",
          "name": "achievementId",
          "type": "string"
        }
      ],
      "name": "hasAchievement",
      "outputs": [
        {
          "internalType": "bool",
          "name": "",
          "type": "bool"
        }
      ],
      "stateMutability": "view",
      "type": "function"
    },
    {
      "inputs": [],
      "name": "owner",
      "outputs": [
        {
          "internalType": "address",
          "name": "",
          "type": "address"
        }
      ],
      "stateMutability": "view",
      "type": "function"
    },
    {
      "inputs": [
        {
          "internalType": "address",
          "name": "user",
          "type": "address"
        }
      ],
      "name": "receiveValuation",
      "outputs": [],
      "stateMutability": "nonpayable",
      "type": "function"
    },
    {
      "inputs": [
        {
          "internalType": "address",
          "name": "user",
          "type": "address"
        },
        {
          "internalType": "uint256",
          "name": "accuracy",
          "type": "uint256"
        }
      ],
      "name": "recordValuation",
      "outputs": [],
      "stateMutability": "nonpayable",
      "type": "function"
    },
    {
      "inputs": [],
      "name": "renounceOwnership",
      "outputs": [],
      "stateMutability": "nonpayable",
      "type": "function"
    },
    {
      "inputs": [
        {
          "internalType": "address",
          "name": "newOwner",
          "type": "address"
        }
      ],
      "name": "transferOwnership",
      "outputs": [],
      "stateMutability": "nonpayable",
      "type": "function"
    },
    {
      "inputs": [
        {
          "internalType": "address",
          "name": "user",
          "type": "address"
        },
        {
          "internalType": "string",
          "name": "achievementId",
          "type": "string"
        }
      ],
      "name": "unlockAchievement",
      "outputs": [],
      "stateMutability": "nonpayable",
      "type": "function"
    }
  ],
  "bytecode": "0x60806040523480156200001157600080fd5b5062000032620000266200014b60201b60201c565b6200015360201b60201c565b60016002604051620000449062000272565b908152602001604051809103902060006101000a81548160ff021916908315150217905550600160026040516200007b90620002d9565b908152602001604051809103902060006101000a81548160ff02191690831515021790555060016002604051620000b29062000340565b908152602001604051809103902060006101000a81548160ff02191690831515021790555060016002604051620000e990620003a7565b908152602001604051809103902060006101000a81548160ff0219169083151502179055506001600260405162000120906200040e565b908152602001604051809103902060006101000a81548160ff02191690831515021790555062000425565b600033905090565b60008060009054906101000a900473ffffffffffffffffffffffffffffffffffffffff169050816000806101000a81548173ffffffffffffffffffffffffffffffffffffffff021916908373ffffffffffffffffffffffffffffffffffffffff1602179055508173ffffffffffffffffffffffffffffffffffffffff168173ffffffffffffffffffffffffffffffffffffffff167f8be0079c531659141344cd1fd0a4f28419497f9722a3daafe3b4186f6b6457e060405160405180910390a35050565b600081905092915050565b7f66697273745f70726f7065727479000000000000000000000000000000000000600082015250565b60006200025a600e8362000217565b9150620002678262000222565b600e82019050919050565b60006200027f826200024b565b9150819050919050565b7f66697273745f76616c756174696f6e0000000000000000000000000000000000600082015250565b6000620002c1600f8362000217565b9150620002ce8262000289565b600f82019050919050565b6000620002e682620002b2565b9150819050919050565b7f61636375726163795f6d61737465720000000000000000000000000000000000600082015250565b600062000328600f8362000217565b91506200033582620002f0565b600f82019050919050565b60006200034d8262000319565b9150819050919050565b7f70726f70657274795f636f6c6c6563746f720000000000000000000000000000600082015250565b60006200038f60128362000217565b91506200039c8262000357565b601282019050919050565b6000620003b48262000380565b9150819050919050565b7f76616c756174696f6e5f65787065727400000000000000000000000000000000600082015250565b6000620003f660108362000217565b91506200040382620003be565b601082019050919050565b60006200041b82620003e7565b9150819050919050565b6112e580620004356000396000f3fe608060405234801561001057600080fd5b506004361061009e5760003560e01c80638110ef38116100665780638110ef381461011d5780638da5cb5b14610139578063987ee15614610157578063b9a626ed1461018b578063f2fde38b146101bb5761009e565b80631454ec32146100a357806316064572146100bf5780635b2379a6146100db57806362efb0df146100f7578063715018a614610113575b600080fd5b6100bd60048036038101906100b89190610b85565b6101d7565b005b6100d960048036038101906100d49190610cf8565b610283565b005b6100f560048036038101906100f09190610b85565b610299565b005b610111600480360381019061010c9190610d8a565b6103dd565b005b61011b610499565b005b61013760048036038101906101329190610df9565b6104ad565b005b6101416106a0565b60405161014e9190610e48565b60405180910390f35b610171600480360381019061016c9190610b85565b6106c9565b604051610182959493929190610e72565b60405180910390f35b6101a560048036038101906101a09190610cf8565b610763565b6040516101b29190610ee0565b60405180910390f35b6101d560048036038101906101d09190610b85565b6107d9565b005b6101df61085c565b6000600160008373ffffffffffffffffffffffffffffffffffffffff1673ffffffffffffffffffffffffffffffffffffffff168152602001908152602001600020905080600201600081548092919061023790610f2a565b91905055508173ffffffffffffffffffffffffffffffffffffffff167f70ac905cf3a65476083e6a5565d0ee35caf549b84b6360380334c9675991d53a60405160405180910390a25050565b61028b61085c565b61029582826108da565b5050565b6102a161085c565b6000600160008373ffffffffffffffffffffffffffffffffffffffff1673ffffffffffffffffffffffffffffffffffffffff16815260200190815260200160002090508060010160008154809291906102f990610f2a565b91905055508173ffffffffffffffffffffffffffffffffffffffff167f8c3e98d4fce33f8a979eebfa643b5763063cb76dc6bcf02ae4f8fff2430ec5d660405160405180910390a2600181600101540361038d5761038c826040518060400160405280600e81526020017f66697273745f70726f70657274790000000000000000000000000000000000008152506108da565b5b600a8160010154036103d9576103d8826040518060400160405280601281526020017f70726f70657274795f636f6c6c6563746f7200000000000000000000000000008152506108da565b5b5050565b6103e561085c565b6000600160008573ffffffffffffffffffffffffffffffffffffffff1673ffffffffffffffffffffffffffffffffffffffff16815260200190815260200160002090508181600001600082825461043c9190610f72565b925050819055508373ffffffffffffffffffffffffffffffffffffffff167fc8f1a243d5ba826edbefb066c3161d90b1f93b4e2d74d705e8b784caffcb5d37848460405161048b929190611025565b60405180910390a250505050565b6104a161085c565b6104ab6000610a47565b565b6104b561085c565b6000600160008473ffffffffffffffffffffffffffffffffffffffff1673ffffffffffffffffffffffffffffffffffffffff168152602001908152602001600020905080600301600081548092919061050d90610f2a565b9190505550818160040160008282546105269190610f72565b9250508190555080600501600081548092919061054290610f2a565b91905055508273ffffffffffffffffffffffffffffffffffffffff167f253289649d570d21b89ed322d0d8e3bef853b89b856bd89e66dfc3be40c116c28360405161058d9190611055565b60405180910390a260018160030154036105e1576105e0836040518060400160405280600f81526020017f66697273745f76616c756174696f6e00000000000000000000000000000000008152506108da565b5b603281600301540361062d5761062c836040518060400160405280601081526020017f76616c756174696f6e5f657870657274000000000000000000000000000000008152506108da565b5b600a81600301541061069b5760008160050154826004015461064f919061109f565b9050605a811061069957610698846040518060400160405280600f81526020017f61636375726163795f6d617374657200000000000000000000000000000000008152506108da565b5b505b505050565b60008060009054906101000a900473ffffffffffffffffffffffffffffffffffffffff16905090565b600080600080600080600160008873ffffffffffffffffffffffffffffffffffffffff1673ffffffffffffffffffffffffffffffffffffffff16815260200190815260200160002090508060000154816001015482600201548360030154600085600501541161073a57600061074f565b8460050154856004015461074e919061109f565b5b955095509550955095505091939590929450565b6000600160008473ffffffffffffffffffffffffffffffffffffffff1673ffffffffffffffffffffffffffffffffffffffff168152602001908152602001600020600601826040516107b5919061110c565b908152602001604051809103902060009054906101000a900460ff16905092915050565b6107e161085c565b600073ffffffffffffffffffffffffffffffffffffffff168173ffffffffffffffffffffffffffffffffffffffff1603610850576040517f08c379a000000000000000000000000000000000000000000000000000000000815260040161084790611195565b60405180910390fd5b61085981610a47565b50565b610864610b0b565b73ffffffffffffffffffffffffffffffffffffffff166108826106a0565b73ffffffffffffffffffffffffffffffffffffffff16146108d8576040517f08c379a00000000000000000000000000000000000000000000000000000000081526004016108cf90611201565b60405180910390fd5b565b6002816040516108ea919061110c565b908152602001604051809103902060009054906101000a900460ff16610945576040517f08c379a000000000000000000000000000000000000000000000000000000000815260040161093c9061126d565b60405180910390fd5b6000600160008473ffffffffffffffffffffffffffffffffffffffff1673ffffffffffffffffffffffffffffffffffffffff1681526020019081526020016000209050806006018260405161099a919061110c565b908152602001604051809103902060009054906101000a900460ff16610a4257600181600601836040516109ce919061110c565b908152602001604051809103902060006101000a81548160ff0219169083151502179055508273ffffffffffffffffffffffffffffffffffffffff167fca8c9accce1ea9b1e88e76d666c26849f39052a6344521346b739cdd29ad4ae683604051610a39919061128d565b60405180910390a25b505050565b60008060009054906101000a900473ffffffffffffffffffffffffffffffffffffffff169050816000806101000a81548173ffffffffffffffffffffffffffffffffffffffff021916908373ffffffffffffffffffffffffffffffffffffffff1602179055508173ffffffffffffffffffffffffffffffffffffffff168173ffffffffffffffffffffffffffffffffffffffff167f8be0079c531659141344cd1fd0a4f28419497f9722a3daafe3b4186f6b6457e060405160405180910390a35050565b600033905090565b6000604051905090565b600080fd5b600080fd5b600073ffffffffffffffffffffffffffffffffffffffff82169050919050565b6000610b5282610b27565b9050919050565b610b6281610b47565b8114610b6d57600080fd5b50565b600081359050610b7f81610b59565b92915050565b600060208284031215610b9b57610b9a610b1d565b5b6000610ba984828501610b70565b91505092915050565b600080fd5b600080fd5b6000601f19601f8301169050919050565b7f4e487b7100000000000000000000000000000000000000000000000000000000600052604160045260246000fd5b610c0582610bbc565b810181811067ffffffffffffffff82111715610c2457610c23610bcd565b5b80604052505050565b6000610c37610b13565b9050610c438282610bfc565b919050565b600067ffffffffffffffff821115610c6357610c62610bcd565b5b610c6c82610bbc565b9050602081019050919050565b82818337600083830152505050565b6000610c9b610c9684610c48565b610c2d565b905082815260208101848484011115610cb757610cb6610bb7565b5b610cc2848285610c79565b509392505050565b600082601f830112610cdf57610cde610bb2565b5b8135610cef848260208601610c88565b91505092915050565b60008060408385031215610d0f57610d0e610b1d565b5b6000610d1d85828601610b70565b925050602083013567ffffffffffffffff811115610d3e57610d3d610b22565b5b610d4a85828601610cca565b9150509250929050565b6000819050919050565b610d6781610d54565b8114610d7257600080fd5b50565b600081359050610d8481610d5e565b92915050565b600080600060608486031215610da357610da2610b1d565b5b6000610db186828701610b70565b935050602084013567ffffffffffffffff811115610dd257610dd1610b22565b5b610dde86828701610cca565b9250506040610def86828701610d75565b9150509250925092565b60008060408385031215610e1057610e0f610b1d565b5b6000610e1e85828601610b70565b9250506020610e2f85828601610d75565b9150509250929050565b610e4281610b47565b82525050565b6000602082019050610e5d6000830184610e39565b92915050565b610e6c81610d54565b82525050565b600060a082019050610e876000830188610e63565b610e946020830187610e63565b610ea16040830186610e63565b610eae6060830185610e63565b610ebb6080830184610e63565b9695505050505050565b60008115159050919050565b610eda81610ec5565b82525050565b6000602082019050610ef56000830184610ed1565b92915050565b7f4e487b7100000000000000000000000000000000000000000000000000000000600052601160045260246000fd5b6000610f3582610d54565b91507fffffffffffffffffffffffffffffffffffffffffffffffffffffffffffffffff8203610f6757610f66610efb565b5b600182019050919050565b6000610f7d82610d54565b9150610f8883610d54565b9250828201905080821115610fa057610f9f610efb565b5b92915050565b600081519050919050565b600082825260208201905092915050565b60005b83811015610fe0578082015181840152602081019050610fc5565b60008484015250505050565b6000610ff782610fa6565b6110018185610fb1565b9350611011818560208601610fc2565b61101a81610bbc565b840191505092915050565b6000604082019050818103600083015261103f8185610fec565b905061104e6020830184610e63565b9392505050565b600060208201905061106a6000830184610e63565b92915050565b7f4e487b7100000000000000000000000000000000000000000000000000000000600052601260045260246000fd5b60006110aa82610d54565b91506110b583610d54565b9250826110c5576110c4611070565b5b828204905092915050565b600081905092915050565b60006110e682610fa6565b6110f081856110d0565b9350611100818560208601610fc2565b80840191505092915050565b600061111882846110db565b915081905092915050565b7f4f776e61626c653a206e6577206f776e657220697320746865207a65726f206160008201527f6464726573730000000000000000000000000000000000000000000000000000602082015250565b600061117f602683610fb1565b915061118a82611123565b604082019050919050565b600060208201905081810360008301526111ae81611172565b9050919050565b7f4f776e61626c653a2063616c6c6572206973206e6f7420746865206f776e6572600082015250565b60006111eb602083610fb1565b91506111f6826111b5565b602082019050919050565b6000602082019050818103600083015261121a816111de565b9050919050565b7f496e76616c696420616368696576656d656e7400000000000000000000000000600082015250565b6000611257601383610fb1565b915061126282611221565b602082019050919050565b600060208201905081810360008301526112868161124a565b9050919050565b600060208201905081810360008301526112a78184610fec565b90509291505056fea26469706673582212209215cfd534cd4a9b7a9fee7a24c6a11c6b756d2216672ad95709375efc47b5bb64736f6c63430008140033",
  "linkReferences": {},
  "deployedLinkReferences": {}
}